{"abi":[{"inputs":[{"internalType":"string[]","name":"candiateList","type":"string[]"},{"internalType":"string","name":"contractdescription","type":"string"},{"internalType":"address","name":"creator","type":"address"}],"stateMutability":"nonpayable","type":"constructor"},{"inputs":[],"name":"INECPERSONNEL","outputs":[{"internalType":"address","name":"","type":"address"}],"stateMutability":"view","type":"function"},{"inputs":[],"name":"campaignDay","outputs":[{"internalType":"bool","name":"","type":"bool"}],"stateMutability":"view","type":"function"},{"inputs":[{"internalType":"uint256","name":"","type":"uint256"}],"name":"candidates","outputs":[{"internalType":"string","name":"name","type":"string"},{"internalType":"uint256","name":"voteCount","type":"uint256"}],"stateMutability":"view","type":"function"},{"inputs":[],"name":"countVote","outputs":[{"internalType":"uint256","name":"winningCanndate","type":"uint256"}],"stateMutability":"view","type":"function"},{"inputs":[],"name":"countingDay","outputs":[{"internalType":"bool","name":"","type":"bool"}],"stateMutability":"view","type":"function"},{"inputs":[],"name":"description","outputs":[{"internalType":"string","name":"","type":"string"}],"stateMutability":"view","type":"function"},{"inputs":[],"name":"endCampaign","outputs":[],"stateMutability":"nonpayable","type":"function"},{"inputs":[],"name":"getCandidateCount","outputs":[{"internalType":"uint256","name":"","type":"uint256"}],"stateMutability":"view","type":"function"},{"inputs":[{"internalType":"address","name":"voter","type":"address"}],"name":"registerVoter","outputs":[],"stateMutability":"nonpayable","type":"function"},{"inputs":[],"name":"startCounting","outputs":[],"stateMutability":"nonpayable","type":"function"},{"inputs":[{"internalType":"uint256","name":"candidate","type":"uint256"}],"name":"vote","outputs":[],"stateMutability":"nonpayable","type":"function"},{"inputs":[{"internalType":"address","name":"","type":"address"}],"name":"voters","outputs":[{"internalType":"bool","name":"voted","type":"bool"},{"internalType":"uint256","name":"vote","type":"uint256"},{"internalType":"bool","name":"rightToVote","type":"bool"}],"stateMutability":"view","type":"function"},{"inputs":[],"name":"winnerName","outputs":[{"internalType":"string","name":"candidateName","type":"string"}],"stateMutability":"view","type":"function"}],"devdoc":{"kind":"dev","methods":{},"version":1},"evm":{"assembly":"    /* \"Provote.sol\":544:3254  contract Provote {... */\n  mstore(0x40, 0x80)\n    /* \"Provote.sol\":828:858  bool public campaignDay = true */\n  0x00\n  dup1\n  sload\n  not(shl(0xa0, 0xffff))\n    /* \"Provote.sol\":864:895  bool public countingDay = false */\n  and\n  shl(0xa0, 0x01)\n  or\n  swap1\n  sstore\n    /* \"Provote.sol\":1015:1372  constructor(... */\n  callvalue\n  dup1\n  iszero\n  tag_1\n  jumpi\n  0x00\n  dup1\n  revert\ntag_1:\n  pop\n  mload(0x40)\n  sub(codesize, bytecodeSize)\n  dup1\n  bytecodeSize\n  dup4\n  codecopy\n  dup2\n  add\n  0x40\n  dup2\n  swap1\n  mstore\n  tag_2\n  swap2\n  tag_3\n  jump\t// in\ntag_2:\n    /* \"Provote.sol\":1149:1162  INECPERSONNEL */\n  0x00\n    /* \"Provote.sol\":1149:1172  INECPERSONNEL = creator */\n  dup1\n  sload\n  not(sub(shl(0xa0, 0x01), 0x01))\n  and\n  sub(shl(0xa0, 0x01), 0x01)\n  dup4\n  and\n  or\n  swap1\n  sstore\n    /* \"Provote.sol\":1182:1215  description = contractdescription */\n  dup2\n  mload\n  tag_6\n  swap1\n  0x01\n  swap1\n  0x20\n  dup6\n  add\n  swap1\n  tag_7\n  jump\t// in\ntag_6:\n  pop\n    /* \"Provote.sol\":1231:1240  uint256 i */\n  0x00\n    /* \"Provote.sol\":1226:1366  for (uint256 i = 0; i < candiateList.length; i++) {... */\ntag_8:\n    /* \"Provote.sol\":1250:1262  candiateList */\n  dup4\n    /* \"Provote.sol\":1250:1269  candiateList.length */\n  mload\n    /* \"Provote.sol\":1246:1247  i */\n  dup2\n    /* \"Provote.sol\":1246:1269  i < candiateList.length */\n  lt\n    /* \"Provote.sol\":1226:1366  for (uint256 i = 0; i < candiateList.length; i++) {... */\n  iszero\n  tag_9\n  jumpi\n    /* \"Provote.sol\":1290:1300  candidates */\n  0x03\n    /* \"Provote.sol\":1306:1354  Candidate({name: candiateList[i], voteCount: 0}) */\n  mload(0x40)\n  dup1\n  0x40\n  add\n  0x40\n  mstore\n  dup1\n    /* \"Provote.sol\":1323:1335  candiateList */\n  dup7\n    /* \"Provote.sol\":1336:1337  i */\n  dup5\n    /* \"Provote.sol\":1323:1338  candiateList[i] */\n  dup2\n  mload\n  dup2\n  lt\n  tag_11\n  jumpi\n  mstore(0x00, shl(0xe0, 0x4e487b71))\n  mstore(0x04, 0x32)\n  revert(0x00, 0x24)\ntag_11:\n  0x20\n  swap1\n  dup2\n  mul\n  swap2\n  swap1\n  swap2\n  add\n  dup2\n  add\n  mload\n    /* \"Provote.sol\":1306:1354  Candidate({name: candiateList[i], voteCount: 0}) */\n  dup3\n  mstore\n    /* \"Provote.sol\":1351:1352  0 */\n  0x00\n    /* \"Provote.sol\":1306:1354  Candidate({name: candiateList[i], voteCount: 0}) */\n  swap2\n  dup2\n  add\n  dup3\n  swap1\n  mstore\n    /* \"Provote.sol\":1290:1355  candidates.push(Candidate({name: candiateList[i], voteCount: 0})) */\n  dup4\n  sload\n  0x01\n  dup2\n  add\n  dup6\n  sstore\n  swap4\n  dup3\n  mstore\n  swap1\n  dup2\n  swap1\n  keccak256\n  dup3\n  mload\n  dup1\n  mload\n  swap4\n  swap5\n  0x02\n  mul\n  swap1\n  swap2\n  add\n  swap3\n  tag_13\n  swap3\n  dup5\n  swap3\n  add\n  swap1\n  tag_7\n  jump\t// in\ntag_13:\n  pop\n  0x20\n  dup3\n  add\n  mload\n  dup2\n  0x01\n  add\n  sstore\n  pop\n  pop\n    /* \"Provote.sol\":1271:1274  i++ */\n  dup1\n  dup1\n  tag_14\n  swap1\n  tag_15\n  jump\t// in\ntag_14:\n  swap2\n  pop\n  pop\n    /* \"Provote.sol\":1226:1366  for (uint256 i = 0; i < candiateList.length; i++) {... */\n  jump(tag_8)\ntag_9:\n  pop\n    /* \"Provote.sol\":1015:1372  constructor(... */\n  pop\n  pop\n  pop\n    /* \"Provote.sol\":544:3254  contract Provote {... */\n  jump(tag_28)\ntag_7:\n  dup3\n  dup1\n  sload\n  tag_17\n  swap1\n  tag_18\n  jump\t// in\ntag_17:\n  swap1\n  0x00\n  mstore\n  keccak256(0x00, 0x20)\n  swap1\n  0x1f\n  add\n  0x20\n  swap1\n  div\n  dup2\n  add\n  swap3\n  dup3\n  tag_20\n  jumpi\n  0x00\n  dup6\n  sstore\n  jump(tag_23)\ntag_20:\n  dup3\n  0x1f\n  lt\n  tag_21\n  jumpi\n  dup1\n  mload\n  not(0xff)\n  and\n  dup4\n  dup1\n  add\n  or\n  dup6\n  sstore\n  jump(tag_23)\ntag_21:\n  dup3\n  dup1\n  add\n  0x01\n  add\n  dup6\n  sstore\n  dup3\n  iszero\n  tag_23\n  jumpi\n  swap2\n  dup3\n  add\ntag_22:\n  dup3\n  dup2\n  gt\n  iszero\n  tag_23\n  jumpi\n  dup3\n  mload\n  dup3\n  sstore\n  swap2\n  0x20\n  add\n  swap2\n  swap1\n  0x01\n  add\n  swap1\n  jump(tag_22)\ntag_23:\n  pop\n  tag_24\n  swap3\n  swap2\n  pop\n  tag_25\n  jump\t// in\ntag_24:\n  pop\n  swap1\n  jump\t// out\ntag_25:\ntag_26:\n  dup1\n  dup3\n  gt\n  iszero\n  tag_24\n  jumpi\n  0x00\n  dup2\n  sstore\n  0x01\n  add\n  jump(tag_26)\n    /* \"#utility.yul\":14:191   */\ntag_29:\n    /* \"#utility.yul\":93:106   */\n  dup1\n  mload\n  sub(shl(0xa0, 0x01), 0x01)\n    /* \"#utility.yul\":135:166   */\n  dup2\n  and\n    /* \"#utility.yul\":125:167   */\n  dup2\n  eq\n    /* \"#utility.yul\":115:117   */\n  tag_31\n  jumpi\n    /* \"#utility.yul\":181:182   */\n  0x00\n    /* \"#utility.yul\":178:179   */\n  dup1\n    /* \"#utility.yul\":171:183   */\n  revert\n    /* \"#utility.yul\":115:117   */\ntag_31:\n    /* \"#utility.yul\":74:191   */\n  swap2\n  swap1\n  pop\n  jump\t// out\n    /* \"#utility.yul\":196:915   */\ntag_32:\n    /* \"#utility.yul\":250:255   */\n  0x00\n    /* \"#utility.yul\":303:306   */\n  dup3\n    /* \"#utility.yul\":296:300   */\n  0x1f\n    /* \"#utility.yul\":288:294   */\n  dup4\n    /* \"#utility.yul\":284:301   */\n  add\n    /* \"#utility.yul\":280:307   */\n  slt\n    /* \"#utility.yul\":270:272   */\n  tag_34\n  jumpi\n    /* \"#utility.yul\":325:330   */\n  dup1\n    /* \"#utility.yul\":318:323   */\n  dup2\n    /* \"#utility.yul\":311:331   */\n  revert\n    /* \"#utility.yul\":270:272   */\ntag_34:\n    /* \"#utility.yul\":352:365   */\n  dup2\n  mload\n  0xffffffffffffffff\n    /* \"#utility.yul\":377:403   */\n  dup2\n  gt\n    /* \"#utility.yul\":374:376   */\n  iszero\n  tag_36\n  jumpi\n    /* \"#utility.yul\":406:424   */\n  tag_36\n  tag_37\n  jump\t// in\ntag_36:\n    /* \"#utility.yul\":445:449   */\n  0x20\n    /* \"#utility.yul\":473:526   */\n  tag_38\n  not(0x1f)\n    /* \"#utility.yul\":516:518   */\n  0x1f\n    /* \"#utility.yul\":497:510   */\n  dup5\n  add\n    /* \"#utility.yul\":493:520   */\n  and\n    /* \"#utility.yul\":489:525   */\n  dup3\n  add\n    /* \"#utility.yul\":473:526   */\n  tag_39\n  jump\t// in\ntag_38:\n    /* \"#utility.yul\":551:553   */\n  dup3\n    /* \"#utility.yul\":542:549   */\n  dup2\n    /* \"#utility.yul\":535:554   */\n  mstore\n    /* \"#utility.yul\":595:598   */\n  dup6\n    /* \"#utility.yul\":590:592   */\n  dup3\n    /* \"#utility.yul\":585:587   */\n  dup5\n    /* \"#utility.yul\":577:583   */\n  dup8\n    /* \"#utility.yul\":573:588   */\n  add\n    /* \"#utility.yul\":569:593   */\n  add\n    /* \"#utility.yul\":566:599   */\n  gt\n    /* \"#utility.yul\":563:565   */\n  iszero\n  tag_40\n  jumpi\n    /* \"#utility.yul\":616:621   */\n  dup4\n    /* \"#utility.yul\":609:614   */\n  dup5\n    /* \"#utility.yul\":602:622   */\n  revert\n    /* \"#utility.yul\":563:565   */\ntag_40:\n    /* \"#utility.yul\":642:647   */\n  dup4\n    /* \"#utility.yul\":656:790   */\ntag_41:\n    /* \"#utility.yul\":670:672   */\n  dup4\n    /* \"#utility.yul\":667:668   */\n  dup2\n    /* \"#utility.yul\":664:673   */\n  lt\n    /* \"#utility.yul\":656:790   */\n  iszero\n  tag_43\n  jumpi\n    /* \"#utility.yul\":759:773   */\n  dup6\n  dup2\n  add\n    /* \"#utility.yul\":755:778   */\n  dup4\n  add\n    /* \"#utility.yul\":749:779   */\n  mload\n    /* \"#utility.yul\":727:742   */\n  dup3\n  dup3\n  add\n    /* \"#utility.yul\":723:747   */\n  dup5\n  add\n    /* \"#utility.yul\":716:780   */\n  mstore\n    /* \"#utility.yul\":681:691   */\n  dup3\n  add\n    /* \"#utility.yul\":656:790   */\n  jump(tag_41)\ntag_43:\n    /* \"#utility.yul\":808:810   */\n  dup4\n    /* \"#utility.yul\":805:806   */\n  dup2\n    /* \"#utility.yul\":802:811   */\n  gt\n    /* \"#utility.yul\":799:801   */\n  iszero\n  tag_44\n  jumpi\n    /* \"#utility.yul\":868:873   */\n  dup5\n    /* \"#utility.yul\":863:865   */\n  dup4\n    /* \"#utility.yul\":858:860   */\n  dup6\n    /* \"#utility.yul\":849:856   */\n  dup5\n    /* \"#utility.yul\":845:861   */\n  add\n    /* \"#utility.yul\":841:866   */\n  add\n    /* \"#utility.yul\":834:874   */\n  mstore\n    /* \"#utility.yul\":799:801   */\ntag_44:\n  pop\n    /* \"#utility.yul\":902:909   */\n  swap6\n    /* \"#utility.yul\":260:915   */\n  swap5\n  pop\n  pop\n  pop\n  pop\n  pop\n  jump\t// out\n    /* \"#utility.yul\":920:2385   */\ntag_3:\n    /* \"#utility.yul\":1053:1059   */\n  0x00\n    /* \"#utility.yul\":1061:1067   */\n  dup1\n    /* \"#utility.yul\":1069:1075   */\n  0x00\n    /* \"#utility.yul\":1122:1124   */\n  0x60\n    /* \"#utility.yul\":1110:1119   */\n  dup5\n    /* \"#utility.yul\":1101:1108   */\n  dup7\n    /* \"#utility.yul\":1097:1120   */\n  sub\n    /* \"#utility.yul\":1093:1125   */\n  slt\n    /* \"#utility.yul\":1090:1092   */\n  iszero\n  tag_46\n  jumpi\n    /* \"#utility.yul\":1143:1149   */\n  dup3\n    /* \"#utility.yul\":1135:1141   */\n  dup4\n    /* \"#utility.yul\":1128:1150   */\n  revert\n    /* \"#utility.yul\":1090:1092   */\ntag_46:\n    /* \"#utility.yul\":1175:1191   */\n  dup4\n  mload\n  0xffffffffffffffff\n    /* \"#utility.yul\":1240:1254   */\n  dup1\n  dup3\n  gt\n    /* \"#utility.yul\":1237:1239   */\n  iszero\n  tag_47\n  jumpi\n    /* \"#utility.yul\":1272:1278   */\n  dup5\n    /* \"#utility.yul\":1264:1270   */\n  dup6\n    /* \"#utility.yul\":1257:1279   */\n  revert\n    /* \"#utility.yul\":1237:1239   */\ntag_47:\n    /* \"#utility.yul\":1315:1321   */\n  dup2\n    /* \"#utility.yul\":1304:1313   */\n  dup7\n    /* \"#utility.yul\":1300:1322   */\n  add\n    /* \"#utility.yul\":1290:1322   */\n  swap2\n  pop\n    /* \"#utility.yul\":1360:1367   */\n  dup7\n    /* \"#utility.yul\":1353:1357   */\n  0x1f\n    /* \"#utility.yul\":1349:1351   */\n  dup4\n    /* \"#utility.yul\":1345:1358   */\n  add\n    /* \"#utility.yul\":1341:1368   */\n  slt\n    /* \"#utility.yul\":1331:1333   */\n  tag_48\n  jumpi\n    /* \"#utility.yul\":1387:1393   */\n  dup5\n    /* \"#utility.yul\":1379:1385   */\n  dup6\n    /* \"#utility.yul\":1372:1394   */\n  revert\n    /* \"#utility.yul\":1331:1333   */\ntag_48:\n    /* \"#utility.yul\":1421:1423   */\n  dup2\n    /* \"#utility.yul\":1415:1424   */\n  mload\n    /* \"#utility.yul\":1443:1447   */\n  0x20\n    /* \"#utility.yul\":1466:1468   */\n  dup3\n    /* \"#utility.yul\":1462:1464   */\n  dup3\n    /* \"#utility.yul\":1459:1469   */\n  gt\n    /* \"#utility.yul\":1456:1458   */\n  iszero\n  tag_50\n  jumpi\n    /* \"#utility.yul\":1472:1490   */\n  tag_50\n  tag_37\n  jump\t// in\ntag_50:\n    /* \"#utility.yul\":1518:1520   */\n  dup2\n    /* \"#utility.yul\":1515:1516   */\n  0x05\n    /* \"#utility.yul\":1511:1521   */\n  shl\n    /* \"#utility.yul\":1541:1569   */\n  tag_51\n    /* \"#utility.yul\":1565:1567   */\n  dup3\n    /* \"#utility.yul\":1561:1563   */\n  dup3\n    /* \"#utility.yul\":1557:1568   */\n  add\n    /* \"#utility.yul\":1541:1569   */\n  tag_39\n  jump\t// in\ntag_51:\n    /* \"#utility.yul\":1603:1618   */\n  dup4\n  dup2\n  mstore\n    /* \"#utility.yul\":1634:1646   */\n  dup3\n  dup2\n  add\n  swap1\n    /* \"#utility.yul\":1666:1677   */\n  dup7\n  dup5\n  add\n    /* \"#utility.yul\":1696:1707   */\n  dup4\n  dup9\n  add\n    /* \"#utility.yul\":1692:1712   */\n  dup6\n  add\n    /* \"#utility.yul\":1689:1722   */\n  dup14\n  lt\n    /* \"#utility.yul\":1686:1688   */\n  iszero\n  tag_52\n  jumpi\n    /* \"#utility.yul\":1740:1746   */\n  dup11\n    /* \"#utility.yul\":1732:1738   */\n  dup12\n    /* \"#utility.yul\":1725:1747   */\n  revert\n    /* \"#utility.yul\":1686:1688   */\ntag_52:\n    /* \"#utility.yul\":1767:1773   */\n  dup11\n    /* \"#utility.yul\":1758:1773   */\n  swap4\n  pop\n    /* \"#utility.yul\":1782:2100   */\ntag_53:\n    /* \"#utility.yul\":1796:1798   */\n  dup6\n    /* \"#utility.yul\":1793:1794   */\n  dup5\n    /* \"#utility.yul\":1790:1799   */\n  lt\n    /* \"#utility.yul\":1782:2100   */\n  iszero\n  tag_55\n  jumpi\n    /* \"#utility.yul\":1866:1869   */\n  dup1\n    /* \"#utility.yul\":1860:1870   */\n  mload\n    /* \"#utility.yul\":1902:1904   */\n  dup8\n    /* \"#utility.yul\":1889:1900   */\n  dup2\n    /* \"#utility.yul\":1886:1905   */\n  gt\n    /* \"#utility.yul\":1883:1885   */\n  iszero\n  tag_56\n  jumpi\n    /* \"#utility.yul\":1923:1929   */\n  dup12\n    /* \"#utility.yul\":1915:1921   */\n  dup13\n    /* \"#utility.yul\":1908:1930   */\n  revert\n    /* \"#utility.yul\":1883:1885   */\ntag_56:\n    /* \"#utility.yul\":1957:2025   */\n  tag_57\n    /* \"#utility.yul\":2017:2024   */\n  dup15\n    /* \"#utility.yul\":2012:2014   */\n  dup8\n    /* \"#utility.yul\":1998:2009   */\n  dup4\n    /* \"#utility.yul\":1994:1996   */\n  dup13\n    /* \"#utility.yul\":1990:2010   */\n  add\n    /* \"#utility.yul\":1986:2015   */\n  add\n    /* \"#utility.yul\":1957:2025   */\n  tag_32\n  jump\t// in\ntag_57:\n    /* \"#utility.yul\":1945:2026   */\n  dup5\n  mstore\n  pop\n    /* \"#utility.yul\":1814:1815   */\n  0x01\n    /* \"#utility.yul\":1807:1816   */\n  swap4\n  swap1\n  swap4\n  add\n  swap3\n    /* \"#utility.yul\":2046:2058   */\n  swap2\n  dup5\n  add\n  swap2\n    /* \"#utility.yul\":2078:2090   */\n  dup5\n  add\n    /* \"#utility.yul\":1782:2100   */\n  jump(tag_53)\ntag_55:\n  pop\n    /* \"#utility.yul\":2155:2173   */\n  swap3\n  dup11\n  add\n    /* \"#utility.yul\":2149:2174   */\n  mload\n    /* \"#utility.yul\":2119:2124   */\n  swap3\n  swap9\n  pop\n    /* \"#utility.yul\":2149:2174   */\n  swap2\n  swap5\n  pop\n  pop\n  pop\n  pop\n    /* \"#utility.yul\":2186:2202   */\n  dup1\n  dup3\n  gt\n    /* \"#utility.yul\":2183:2185   */\n  iszero\n  tag_58\n  jumpi\n    /* \"#utility.yul\":2220:2226   */\n  dup4\n    /* \"#utility.yul\":2212:2218   */\n  dup5\n    /* \"#utility.yul\":2205:2227   */\n  revert\n    /* \"#utility.yul\":2183:2185   */\ntag_58:\n  pop\n    /* \"#utility.yul\":2248:2311   */\n  tag_59\n    /* \"#utility.yul\":2303:2310   */\n  dup7\n    /* \"#utility.yul\":2292:2300   */\n  dup3\n    /* \"#utility.yul\":2281:2290   */\n  dup8\n    /* \"#utility.yul\":2277:2301   */\n  add\n    /* \"#utility.yul\":2248:2311   */\n  tag_32\n  jump\t// in\ntag_59:\n    /* \"#utility.yul\":2238:2311   */\n  swap3\n  pop\n  pop\n    /* \"#utility.yul\":2330:2379   */\n  tag_60\n    /* \"#utility.yul\":2375:2377   */\n  0x40\n    /* \"#utility.yul\":2364:2373   */\n  dup6\n    /* \"#utility.yul\":2360:2378   */\n  add\n    /* \"#utility.yul\":2330:2379   */\n  tag_29\n  jump\t// in\ntag_60:\n    /* \"#utility.yul\":2320:2379   */\n  swap1\n  pop\n    /* \"#utility.yul\":1080:2385   */\n  swap3\n  pop\n  swap3\n  pop\n  swap3\n  jump\t// out\n    /* \"#utility.yul\":2390:2665   */\ntag_39:\n    /* \"#utility.yul\":2461:2463   */\n  0x40\n    /* \"#utility.yul\":2455:2464   */\n  mload\n  not(0x1f)\n    /* \"#utility.yul\":2526:2528   */\n  0x1f\n    /* \"#utility.yul\":2507:2520   */\n  dup4\n  add\n    /* \"#utility.yul\":2503:2530   */\n  and\n    /* \"#utility.yul\":2491:2531   */\n  dup2\n  add\n    /* \"#utility.yul\":2582:2604   */\n  dup2\n  dup2\n  lt\n  0xffffffffffffffff\n    /* \"#utility.yul\":2546:2580   */\n  dup3\n  gt\n    /* \"#utility.yul\":2543:2605   */\n  or\n    /* \"#utility.yul\":2540:2542   */\n  iszero\n  tag_63\n  jumpi\n    /* \"#utility.yul\":2608:2626   */\n  tag_63\n  tag_37\n  jump\t// in\ntag_63:\n    /* \"#utility.yul\":2644:2646   */\n  0x40\n    /* \"#utility.yul\":2637:2659   */\n  mstore\n    /* \"#utility.yul\":2435:2665   */\n  swap2\n  swap1\n  pop\n  jump\t// out\n    /* \"#utility.yul\":2670:3050   */\ntag_18:\n    /* \"#utility.yul\":2749:2750   */\n  0x01\n    /* \"#utility.yul\":2745:2757   */\n  dup2\n  dup2\n  shr\n  swap1\n    /* \"#utility.yul\":2792:2804   */\n  dup3\n  and\n  dup1\n    /* \"#utility.yul\":2813:2815   */\n  tag_65\n  jumpi\n    /* \"#utility.yul\":2867:2871   */\n  0x7f\n    /* \"#utility.yul\":2859:2865   */\n  dup3\n    /* \"#utility.yul\":2855:2872   */\n  and\n    /* \"#utility.yul\":2845:2872   */\n  swap2\n  pop\n    /* \"#utility.yul\":2813:2815   */\ntag_65:\n    /* \"#utility.yul\":2920:2922   */\n  0x20\n    /* \"#utility.yul\":2912:2918   */\n  dup3\n    /* \"#utility.yul\":2909:2923   */\n  lt\n    /* \"#utility.yul\":2889:2907   */\n  dup2\n    /* \"#utility.yul\":2886:2924   */\n  eq\n    /* \"#utility.yul\":2883:2885   */\n  iszero\n  tag_66\n  jumpi\n    /* \"#utility.yul\":2966:2976   */\n  0x4e487b71\n    /* \"#utility.yul\":2961:2964   */\n  0xe0\n    /* \"#utility.yul\":2957:2977   */\n  shl\n    /* \"#utility.yul\":2954:2955   */\n  0x00\n    /* \"#utility.yul\":2947:2978   */\n  mstore\n    /* \"#utility.yul\":3001:3005   */\n  0x22\n    /* \"#utility.yul\":2998:2999   */\n  0x04\n    /* \"#utility.yul\":2991:3006   */\n  mstore\n    /* \"#utility.yul\":3029:3033   */\n  0x24\n    /* \"#utility.yul\":3026:3027   */\n  0x00\n    /* \"#utility.yul\":3019:3034   */\n  revert\n    /* \"#utility.yul\":2883:2885   */\ntag_66:\n  pop\n    /* \"#utility.yul\":2725:3050   */\n  swap2\n  swap1\n  pop\n  jump\t// out\n    /* \"#utility.yul\":3055:3291   */\ntag_15:\n    /* \"#utility.yul\":3094:3097   */\n  0x00\n  not(0x00)\n    /* \"#utility.yul\":3115:3132   */\n  dup3\n  eq\n    /* \"#utility.yul\":3112:3114   */\n  iszero\n  tag_68\n  jumpi\n  shl(0xe0, 0x4e487b71)\n    /* \"#utility.yul\":3155:3188   */\n  dup2\n  mstore\n    /* \"#utility.yul\":3211:3215   */\n  0x11\n    /* \"#utility.yul\":3208:3209   */\n  0x04\n    /* \"#utility.yul\":3201:3216   */\n  mstore\n    /* \"#utility.yul\":3241:3245   */\n  0x24\n    /* \"#utility.yul\":3155:3188   */\n  dup2\n    /* \"#utility.yul\":3229:3246   */\n  revert\n    /* \"#utility.yul\":3112:3114   */\ntag_68:\n  pop\n    /* \"#utility.yul\":3283:3284   */\n  0x01\n    /* \"#utility.yul\":3272:3285   */\n  add\n  swap1\n    /* \"#utility.yul\":3102:3291   */\n  jump\t// out\n    /* \"#utility.yul\":3296:3423   */\ntag_37:\n    /* \"#utility.yul\":3357:3367   */\n  0x4e487b71\n    /* \"#utility.yul\":3352:3355   */\n  0xe0\n    /* \"#utility.yul\":3348:3368   */\n  shl\n    /* \"#utility.yul\":3345:3346   */\n  0x00\n    /* \"#utility.yul\":3338:3369   */\n  mstore\n    /* \"#utility.yul\":3388:3392   */\n  0x41\n    /* \"#utility.yul\":3385:3386   */\n  0x04\n    /* \"#utility.yul\":3378:3393   */\n  mstore\n    /* \"#utility.yul\":3412:3416   */\n  0x24\n    /* \"#utility.yul\":3409:3410   */\n  0x00\n    /* \"#utility.yul\":3402:3417   */\n  revert\n    /* \"#utility.yul\":3328:3423   */\ntag_28:\n    /* \"Provote.sol\":544:3254  contract Provote {... */\n  dataSize(sub_0)\n  dup1\n  dataOffset(sub_0)\n  0x00\n  codecopy\n  0x00\n  return\nstop\n\nsub_0: assembly {\n        /* \"Provote.sol\":544:3254  contract Provote {... */\n      mstore(0x40, 0x80)\n      callvalue\n      dup1\n      iszero\n      tag_1\n      jumpi\n      0x00\n      dup1\n      revert\n    tag_1:\n      pop\n      jumpi(tag_2, lt(calldatasize, 0x04))\n      shr(0xe0, calldataload(0x00))\n      dup1\n      0x38db6dd3\n      gt\n      tag_16\n      jumpi\n      dup1\n      0x9c0b97b5\n      gt\n      tag_17\n      jumpi\n      dup1\n      0x9c0b97b5\n      eq\n      tag_12\n      jumpi\n      dup1\n      0xa3ec138d\n      eq\n      tag_13\n      jumpi\n      dup1\n      0xdb9e19c6\n      eq\n      tag_14\n      jumpi\n      dup1\n      0xe2ba53f0\n      eq\n      tag_15\n      jumpi\n      0x00\n      dup1\n      revert\n    tag_17:\n      dup1\n      0x38db6dd3\n      eq\n      tag_9\n      jumpi\n      dup1\n      0x71aac7f9\n      eq\n      tag_10\n      jumpi\n      dup1\n      0x7284e416\n      eq\n      tag_11\n      jumpi\n      0x00\n      dup1\n      revert\n    tag_16:\n      dup1\n      0x0121b93f\n      eq\n      tag_3\n      jumpi\n      dup1\n      0x1a6cd2fd\n      eq\n      tag_4\n      jumpi\n      dup1\n      0x232039e0\n      eq\n      tag_5\n      jumpi\n      dup1\n      0x30a56347\n      eq\n      tag_6\n      jumpi\n      dup1\n      0x3477ee2e\n      eq\n      tag_7\n      jumpi\n      dup1\n      0x38c48433\n      eq\n      tag_8\n      jumpi\n    tag_2:\n      0x00\n      dup1\n      revert\n        /* \"Provote.sol\":2133:2661  function vote(uint256 candidate) public {... */\n    tag_3:\n      tag_18\n      tag_19\n      calldatasize\n      0x04\n      tag_20\n      jump\t// in\n    tag_19:\n      tag_21\n      jump\t// in\n    tag_18:\n      stop\n        /* \"Provote.sol\":2667:3035  function countVote() public view returns (uint256 winningCanndate) {... */\n    tag_4:\n      tag_22\n      tag_23\n      jump\t// in\n    tag_22:\n      mload(0x40)\n        /* \"#utility.yul\":5093:5118   */\n      swap1\n      dup2\n      mstore\n        /* \"#utility.yul\":5081:5083   */\n      0x20\n        /* \"#utility.yul\":5066:5084   */\n      add\n        /* \"Provote.sol\":2667:3035  function countVote() public view returns (uint256 winningCanndate) {... */\n    tag_24:\n      mload(0x40)\n      dup1\n      swap2\n      sub\n      swap1\n      return\n        /* \"Provote.sol\":864:895  bool public countingDay = false */\n    tag_5:\n      sload(0x00)\n      tag_26\n      swap1\n      shl(0xa8, 0x01)\n      swap1\n      div\n      0xff\n      and\n      dup2\n      jump\n    tag_26:\n      mload(0x40)\n        /* \"#utility.yul\":1374:1388   */\n      swap1\n      iszero\n        /* \"#utility.yul\":1367:1389   */\n      iszero\n        /* \"#utility.yul\":1349:1390   */\n      dup2\n      mstore\n        /* \"#utility.yul\":1337:1339   */\n      0x20\n        /* \"#utility.yul\":1322:1340   */\n      add\n        /* \"Provote.sol\":864:895  bool public countingDay = false */\n      tag_24\n        /* \"#utility.yul\":1304:1396   */\n      jump\n        /* \"Provote.sol\":1635:1735  function getCandidateCount() public view returns (uint256) {... */\n    tag_6:\n        /* \"Provote.sol\":1711:1721  candidates */\n      0x03\n        /* \"Provote.sol\":1711:1728  candidates.length */\n      sload\n        /* \"Provote.sol\":1635:1735  function getCandidateCount() public view returns (uint256) {... */\n      jump(tag_22)\n        /* \"Provote.sol\":979:1008  Candidate[] public candidates */\n    tag_7:\n      tag_33\n      tag_34\n      calldatasize\n      0x04\n      tag_20\n      jump\t// in\n    tag_34:\n      tag_35\n      jump\t// in\n    tag_33:\n      mload(0x40)\n      tag_24\n      swap3\n      swap2\n      swap1\n      tag_37\n      jump\t// in\n        /* \"Provote.sol\":1551:1629  function startCounting() public restricted {... */\n    tag_8:\n      tag_18\n      tag_39\n      jump\t// in\n        /* \"Provote.sol\":1741:2127  function registerVoter(address voter) public restricted {... */\n    tag_9:\n      tag_18\n      tag_41\n      calldatasize\n      0x04\n      tag_42\n      jump\t// in\n    tag_41:\n      tag_43\n      jump\t// in\n        /* \"Provote.sol\":1468:1545  function endCampaign() public restricted {... */\n    tag_10:\n      tag_18\n      tag_45\n      jump\t// in\n        /* \"Provote.sol\":901:926  string public description */\n    tag_11:\n      tag_46\n      tag_47\n      jump\t// in\n    tag_46:\n      mload(0x40)\n      tag_24\n      swap2\n      swap1\n      tag_49\n      jump\t// in\n        /* \"Provote.sol\":828:858  bool public campaignDay = true */\n    tag_12:\n      sload(0x00)\n      tag_26\n      swap1\n      shl(0xa0, 0x01)\n      swap1\n      div\n      0xff\n      and\n      dup2\n      jump\n        /* \"Provote.sol\":933:972  mapping(address => Voter) public voters */\n    tag_13:\n      tag_53\n      tag_54\n      calldatasize\n      0x04\n      tag_42\n      jump\t// in\n    tag_54:\n      0x02\n      0x20\n      dup2\n      swap1\n      mstore\n      0x00\n      swap2\n      dup3\n      mstore\n      0x40\n      swap1\n      swap2\n      keccak256\n      dup1\n      sload\n      0x01\n      dup3\n      add\n      sload\n      swap2\n      swap1\n      swap3\n      add\n      sload\n      0xff\n      swap3\n      dup4\n      and\n      swap3\n      and\n      dup4\n      jump\n    tag_53:\n      0x40\n      dup1\n      mload\n        /* \"#utility.yul\":1616:1630   */\n      swap4\n      iszero\n        /* \"#utility.yul\":1609:1631   */\n      iszero\n        /* \"#utility.yul\":1591:1632   */\n      dup5\n      mstore\n        /* \"#utility.yul\":1663:1665   */\n      0x20\n        /* \"#utility.yul\":1648:1666   */\n      dup5\n      add\n        /* \"#utility.yul\":1641:1675   */\n      swap3\n      swap1\n      swap3\n      mstore\n        /* \"#utility.yul\":1718:1732   */\n      iszero\n        /* \"#utility.yul\":1711:1733   */\n      iszero\n        /* \"#utility.yul\":1691:1709   */\n      swap1\n      dup3\n      add\n        /* \"#utility.yul\":1684:1734   */\n      mstore\n        /* \"#utility.yul\":1579:1581   */\n      0x60\n        /* \"#utility.yul\":1564:1582   */\n      add\n        /* \"Provote.sol\":933:972  mapping(address => Voter) public voters */\n      tag_24\n        /* \"#utility.yul\":1546:1740   */\n      jump\n        /* \"Provote.sol\":794:822  address public INECPERSONNEL */\n    tag_14:\n      sload(0x00)\n      tag_58\n      swap1\n      sub(shl(0xa0, 0x01), 0x01)\n      and\n      dup2\n      jump\n    tag_58:\n      mload(0x40)\n      sub(shl(0xa0, 0x01), 0x01)\n        /* \"#utility.yul\":1165:1197   */\n      swap2\n      swap1\n      swap2\n      and\n        /* \"#utility.yul\":1147:1198   */\n      dup2\n      mstore\n        /* \"#utility.yul\":1135:1137   */\n      0x20\n        /* \"#utility.yul\":1120:1138   */\n      add\n        /* \"Provote.sol\":794:822  address public INECPERSONNEL */\n      tag_24\n        /* \"#utility.yul\":1102:1204   */\n      jump\n        /* \"Provote.sol\":3041:3252  function winnerName() public view returns (string memory candidateName) {... */\n    tag_15:\n      tag_46\n      tag_63\n      jump\t// in\n        /* \"Provote.sol\":2133:2661  function vote(uint256 candidate) public {... */\n    tag_21:\n        /* \"Provote.sol\":2204:2215  campaignDay */\n      sload(0x00)\n      shl(0xa0, 0x01)\n      swap1\n      div\n      0xff\n      and\n        /* \"Provote.sol\":2204:2224  campaignDay == false */\n      iszero\n        /* \"Provote.sol\":2183:2290  require(... */\n      tag_66\n      jumpi\n      mload(0x40)\n      shl(0xe5, 0x461bcd)\n      dup2\n      mstore\n        /* \"#utility.yul\":3577:3579   */\n      0x20\n        /* \"Provote.sol\":2183:2290  require(... */\n      0x04\n      dup3\n      add\n        /* \"#utility.yul\":3559:3580   */\n      mstore\n        /* \"#utility.yul\":3616:3618   */\n      0x28\n        /* \"#utility.yul\":3596:3614   */\n      0x24\n      dup3\n      add\n        /* \"#utility.yul\":3589:3619   */\n      mstore\n        /* \"#utility.yul\":3655:3689   */\n      0x4d616b652073757265206e6f206f6e652063616e20766f7465206f6e2063616d\n        /* \"#utility.yul\":3635:3653   */\n      0x44\n      dup3\n      add\n        /* \"#utility.yul\":3628:3690   */\n      mstore\n      shl(0xc0, 0x706169676e446179)\n        /* \"#utility.yul\":3706:3724   */\n      0x64\n      dup3\n      add\n        /* \"#utility.yul\":3699:3737   */\n      mstore\n        /* \"#utility.yul\":3754:3773   */\n      0x84\n      add\n        /* \"Provote.sol\":2183:2290  require(... */\n    tag_67:\n      mload(0x40)\n      dup1\n      swap2\n      sub\n      swap1\n      revert\n    tag_66:\n        /* \"Provote.sol\":2308:2319  countingDay */\n      sload(0x00)\n      shl(0xa8, 0x01)\n      swap1\n      div\n      0xff\n      and\n        /* \"Provote.sol\":2308:2328  countingDay == false */\n      iszero\n        /* \"Provote.sol\":2300:2369  require(countingDay == false, \"Makes sure, it's countingDay before \") */\n      tag_69\n      jumpi\n      mload(0x40)\n      shl(0xe5, 0x461bcd)\n      dup2\n      mstore\n        /* \"#utility.yul\":4744:4746   */\n      0x20\n        /* \"Provote.sol\":2300:2369  require(countingDay == false, \"Makes sure, it's countingDay before \") */\n      0x04\n      dup3\n      add\n        /* \"#utility.yul\":4726:4747   */\n      mstore\n        /* \"#utility.yul\":4783:4785   */\n      0x24\n        /* \"#utility.yul\":4763:4781   */\n      dup1\n      dup3\n      add\n        /* \"#utility.yul\":4756:4786   */\n      mstore\n        /* \"#utility.yul\":4822:4856   */\n      0x4d616b657320737572652c206974277320636f756e74696e6744617920626566\n        /* \"#utility.yul\":4802:4820   */\n      0x44\n      dup3\n      add\n        /* \"#utility.yul\":4795:4857   */\n      mstore\n      shl(0xe5, 0x037b9329)\n        /* \"#utility.yul\":4873:4891   */\n      0x64\n      dup3\n      add\n        /* \"#utility.yul\":4866:4900   */\n      mstore\n        /* \"#utility.yul\":4917:4936   */\n      0x84\n      add\n        /* \"Provote.sol\":2300:2369  require(countingDay == false, \"Makes sure, it's countingDay before \") */\n      tag_67\n        /* \"#utility.yul\":4716:4942   */\n      jump\n        /* \"Provote.sol\":2300:2369  require(countingDay == false, \"Makes sure, it's countingDay before \") */\n    tag_69:\n        /* \"Provote.sol\":2410:2420  msg.sender */\n      caller\n        /* \"Provote.sol\":2380:2400  Voter storage sender */\n      0x00\n        /* \"Provote.sol\":2403:2421  voters[msg.sender] */\n      swap1\n      dup2\n      mstore\n        /* \"Provote.sol\":2403:2409  voters */\n      0x02\n        /* \"Provote.sol\":2403:2421  voters[msg.sender] */\n      0x20\n      dup2\n      swap1\n      mstore\n      0x40\n      swap1\n      swap2\n      keccak256\n        /* \"Provote.sol\":2439:2457  sender.rightToVote */\n      swap1\n      dup2\n      add\n      sload\n      0xff\n      and\n        /* \"Provote.sol\":2431:2491  require(sender.rightToVote != false, \"Has no right to vote\") */\n      tag_72\n      jumpi\n      mload(0x40)\n      shl(0xe5, 0x461bcd)\n      dup2\n      mstore\n        /* \"#utility.yul\":2468:2470   */\n      0x20\n        /* \"Provote.sol\":2431:2491  require(sender.rightToVote != false, \"Has no right to vote\") */\n      0x04\n      dup3\n      add\n        /* \"#utility.yul\":2450:2471   */\n      mstore\n        /* \"#utility.yul\":2507:2509   */\n      0x14\n        /* \"#utility.yul\":2487:2505   */\n      0x24\n      dup3\n      add\n        /* \"#utility.yul\":2480:2510   */\n      mstore\n      shl(0x60, 0x486173206e6f20726967687420746f20766f7465)\n        /* \"#utility.yul\":2526:2544   */\n      0x44\n      dup3\n      add\n        /* \"#utility.yul\":2519:2569   */\n      mstore\n        /* \"#utility.yul\":2586:2604   */\n      0x64\n      add\n        /* \"Provote.sol\":2431:2491  require(sender.rightToVote != false, \"Has no right to vote\") */\n      tag_67\n        /* \"#utility.yul\":2440:2610   */\n      jump\n        /* \"Provote.sol\":2431:2491  require(sender.rightToVote != false, \"Has no right to vote\") */\n    tag_72:\n        /* \"Provote.sol\":2510:2522  sender.voted */\n      dup1\n      sload\n      0xff\n      and\n        /* \"Provote.sol\":2509:2522  !sender.voted */\n      iszero\n        /* \"Provote.sol\":2501:2545  require(!sender.voted, \"Can't vote twice !\") */\n      tag_75\n      jumpi\n      mload(0x40)\n      shl(0xe5, 0x461bcd)\n      dup2\n      mstore\n        /* \"#utility.yul\":3986:3988   */\n      0x20\n        /* \"Provote.sol\":2501:2545  require(!sender.voted, \"Can't vote twice !\") */\n      0x04\n      dup3\n      add\n        /* \"#utility.yul\":3968:3989   */\n      mstore\n        /* \"#utility.yul\":4025:4027   */\n      0x12\n        /* \"#utility.yul\":4005:4023   */\n      0x24\n      dup3\n      add\n        /* \"#utility.yul\":3998:4028   */\n      mstore\n      shl(0x70, 0x43616e277420766f74652074776963652021)\n        /* \"#utility.yul\":4044:4062   */\n      0x44\n      dup3\n      add\n        /* \"#utility.yul\":4037:4085   */\n      mstore\n        /* \"#utility.yul\":4102:4120   */\n      0x64\n      add\n        /* \"Provote.sol\":2501:2545  require(!sender.voted, \"Can't vote twice !\") */\n      tag_67\n        /* \"#utility.yul\":3958:4126   */\n      jump\n        /* \"Provote.sol\":2501:2545  require(!sender.voted, \"Can't vote twice !\") */\n    tag_75:\n        /* \"Provote.sol\":2555:2574  sender.voted = true */\n      dup1\n      sload\n      not(0xff)\n      and\n        /* \"Provote.sol\":2570:2574  true */\n      0x01\n        /* \"Provote.sol\":2555:2574  sender.voted = true */\n      swap1\n      dup2\n      or\n      dup3\n      sstore\n        /* \"Provote.sol\":2584:2595  sender.vote */\n      dup2\n      dup2\n      add\n        /* \"Provote.sol\":2584:2607  sender.vote = candidate */\n      dup4\n      swap1\n      sstore\n        /* \"Provote.sol\":2618:2628  candidates */\n      0x03\n        /* \"Provote.sol\":2618:2639  candidates[candidate] */\n      dup1\n      sload\n        /* \"Provote.sol\":2598:2607  candidate */\n      dup5\n      swap1\n        /* \"Provote.sol\":2618:2639  candidates[candidate] */\n      dup2\n      lt\n      tag_78\n      jumpi\n      mstore(0x00, shl(0xe0, 0x4e487b71))\n      mstore(0x04, 0x32)\n      revert(0x00, 0x24)\n    tag_78:\n      swap1\n      0x00\n      mstore\n      keccak256(0x00, 0x20)\n      swap1\n      0x02\n      mul\n      add\n        /* \"Provote.sol\":2618:2649  candidates[candidate].voteCount */\n      0x01\n      add\n      0x00\n        /* \"Provote.sol\":2618:2654  candidates[candidate].voteCount += 1 */\n      dup3\n      dup3\n      sload\n      tag_80\n      swap2\n      swap1\n      tag_81\n      jump\t// in\n    tag_80:\n      swap1\n      swap2\n      sstore\n      pop\n      pop\n      pop\n      pop\n        /* \"Provote.sol\":2133:2661  function vote(uint256 candidate) public {... */\n      jump\t// out\n        /* \"Provote.sol\":2667:3035  function countVote() public view returns (uint256 winningCanndate) {... */\n    tag_23:\n        /* \"Provote.sol\":2709:2732  uint256 winningCanndate */\n      0x00\n      dup1\n      dup1\n        /* \"Provote.sol\":2787:3029  for (uint256 c = 0; c < candidates.length; c++) {... */\n    tag_83:\n        /* \"Provote.sol\":2811:2821  candidates */\n      0x03\n        /* \"Provote.sol\":2811:2828  candidates.length */\n      sload\n        /* \"Provote.sol\":2807:2828  c < candidates.length */\n      dup2\n      lt\n        /* \"Provote.sol\":2787:3029  for (uint256 c = 0; c < candidates.length; c++) {... */\n      iszero\n      tag_84\n      jumpi\n        /* \"Provote.sol\":2879:2900  leadingCandidateCount */\n      dup2\n        /* \"Provote.sol\":2853:2863  candidates */\n      0x03\n        /* \"Provote.sol\":2864:2865  c */\n      dup3\n        /* \"Provote.sol\":2853:2866  candidates[c] */\n      dup2\n      sload\n      dup2\n      lt\n      tag_86\n      jumpi\n      mstore(0x00, shl(0xe0, 0x4e487b71))\n      mstore(0x04, 0x32)\n      revert(0x00, 0x24)\n    tag_86:\n      swap1\n      0x00\n      mstore\n      keccak256(0x00, 0x20)\n      swap1\n      0x02\n      mul\n      add\n        /* \"Provote.sol\":2853:2876  candidates[c].voteCount */\n      0x01\n      add\n      sload\n        /* \"Provote.sol\":2853:2900  candidates[c].voteCount > leadingCandidateCount */\n      gt\n        /* \"Provote.sol\":2849:3019  if (candidates[c].voteCount > leadingCandidateCount) {... */\n      iszero\n      tag_88\n      jumpi\n        /* \"Provote.sol\":2944:2954  candidates */\n      0x03\n        /* \"Provote.sol\":2955:2956  c */\n      dup2\n        /* \"Provote.sol\":2944:2957  candidates[c] */\n      dup2\n      sload\n      dup2\n      lt\n      tag_89\n      jumpi\n      mstore(0x00, shl(0xe0, 0x4e487b71))\n      mstore(0x04, 0x32)\n      revert(0x00, 0x24)\n    tag_89:\n      swap1\n      0x00\n      mstore\n      keccak256(0x00, 0x20)\n      swap1\n      0x02\n      mul\n      add\n        /* \"Provote.sol\":2944:2967  candidates[c].voteCount */\n      0x01\n      add\n      sload\n        /* \"Provote.sol\":2920:2967  leadingCandidateCount = candidates[c].voteCount */\n      swap2\n      pop\n        /* \"Provote.sol\":3003:3004  c */\n      dup1\n        /* \"Provote.sol\":2985:3004  winningCanndate = c */\n      swap3\n      pop\n        /* \"Provote.sol\":2849:3019  if (candidates[c].voteCount > leadingCandidateCount) {... */\n    tag_88:\n        /* \"Provote.sol\":2830:2833  c++ */\n      dup1\n      tag_91\n      dup2\n      tag_92\n      jump\t// in\n    tag_91:\n      swap2\n      pop\n      pop\n        /* \"Provote.sol\":2787:3029  for (uint256 c = 0; c < candidates.length; c++) {... */\n      jump(tag_83)\n    tag_84:\n      pop\n        /* \"Provote.sol\":2667:3035  function countVote() public view returns (uint256 winningCanndate) {... */\n      pop\n      swap1\n      jump\t// out\n        /* \"Provote.sol\":979:1008  Candidate[] public candidates */\n    tag_35:\n      0x03\n      dup2\n      dup2\n      sload\n      dup2\n      lt\n      tag_94\n      jumpi\n      0x00\n      dup1\n      revert\n    tag_94:\n      swap1\n      0x00\n      mstore\n      keccak256(0x00, 0x20)\n      swap1\n      0x02\n      mul\n      add\n      0x00\n      swap2\n      pop\n      swap1\n      pop\n      dup1\n      0x00\n      add\n      dup1\n      sload\n      tag_96\n      swap1\n      tag_97\n      jump\t// in\n    tag_96:\n      dup1\n      0x1f\n      add\n      0x20\n      dup1\n      swap2\n      div\n      mul\n      0x20\n      add\n      mload(0x40)\n      swap1\n      dup2\n      add\n      0x40\n      mstore\n      dup1\n      swap3\n      swap2\n      swap1\n      dup2\n      dup2\n      mstore\n      0x20\n      add\n      dup3\n      dup1\n      sload\n      tag_98\n      swap1\n      tag_97\n      jump\t// in\n    tag_98:\n      dup1\n      iszero\n      tag_99\n      jumpi\n      dup1\n      0x1f\n      lt\n      tag_100\n      jumpi\n      0x0100\n      dup1\n      dup4\n      sload\n      div\n      mul\n      dup4\n      mstore\n      swap2\n      0x20\n      add\n      swap2\n      jump(tag_99)\n    tag_100:\n      dup3\n      add\n      swap2\n      swap1\n      0x00\n      mstore\n      keccak256(0x00, 0x20)\n      swap1\n    tag_101:\n      dup2\n      sload\n      dup2\n      mstore\n      swap1\n      0x01\n      add\n      swap1\n      0x20\n      add\n      dup1\n      dup4\n      gt\n      tag_101\n      jumpi\n      dup3\n      swap1\n      sub\n      0x1f\n      and\n      dup3\n      add\n      swap2\n    tag_99:\n      pop\n      pop\n      pop\n      pop\n      pop\n      swap1\n      dup1\n      0x01\n      add\n      sload\n      swap1\n      pop\n      dup3\n      jump\t// out\n        /* \"Provote.sol\":1551:1629  function startCounting() public restricted {... */\n    tag_39:\n        /* \"Provote.sol\":1430:1443  INECPERSONNEL */\n      and(sub(shl(0xa0, 0x01), 0x01), sload(0x00))\n        /* \"Provote.sol\":1416:1426  msg.sender */\n      caller\n        /* \"Provote.sol\":1416:1443  msg.sender == INECPERSONNEL */\n      eq\n        /* \"Provote.sol\":1408:1444  require(msg.sender == INECPERSONNEL) */\n      tag_103\n      jumpi\n      0x00\n      dup1\n      revert\n    tag_103:\n        /* \"Provote.sol\":1604:1615  countingDay */\n      0x00\n        /* \"Provote.sol\":1604:1622  countingDay = true */\n      dup1\n      sload\n      not(shl(0xa8, 0xff))\n      and\n      shl(0xa8, 0x01)\n      or\n      swap1\n      sstore\n        /* \"Provote.sol\":1551:1629  function startCounting() public restricted {... */\n      jump\t// out\n        /* \"Provote.sol\":1741:2127  function registerVoter(address voter) public restricted {... */\n    tag_43:\n        /* \"Provote.sol\":1430:1443  INECPERSONNEL */\n      and(sub(shl(0xa0, 0x01), 0x01), sload(0x00))\n        /* \"Provote.sol\":1416:1426  msg.sender */\n      caller\n        /* \"Provote.sol\":1416:1443  msg.sender == INECPERSONNEL */\n      eq\n        /* \"Provote.sol\":1408:1444  require(msg.sender == INECPERSONNEL) */\n      tag_106\n      jumpi\n      0x00\n      dup1\n      revert\n    tag_106:\n        /* \"Provote.sol\":1828:1839  campaignDay */\n      sload(0x00)\n      0xff\n      shl(0xa0, 0x01)\n      swap1\n      swap2\n      div\n      and\n        /* \"Provote.sol\":1828:1847  campaignDay == true */\n      iszero\n      iszero\n      0x01\n      eq\n        /* \"Provote.sol\":1807:1915  require(... */\n      tag_108\n      jumpi\n      mload(0x40)\n      shl(0xe5, 0x461bcd)\n      dup2\n      mstore\n        /* \"#utility.yul\":4333:4335   */\n      0x20\n        /* \"Provote.sol\":1807:1915  require(... */\n      0x04\n      dup3\n      add\n        /* \"#utility.yul\":4315:4336   */\n      mstore\n        /* \"#utility.yul\":4372:4374   */\n      0x2a\n        /* \"#utility.yul\":4352:4370   */\n      0x24\n      dup3\n      add\n        /* \"#utility.yul\":4345:4375   */\n      mstore\n        /* \"#utility.yul\":4411:4445   */\n      0x546861742063616d7061696e67446179206973207472756520666f7220746869\n        /* \"#utility.yul\":4391:4409   */\n      0x44\n      dup3\n      add\n        /* \"#utility.yul\":4384:4446   */\n      mstore\n      shl(0xb1, 0x399032b632b1ba34b7b7)\n        /* \"#utility.yul\":4462:4480   */\n      0x64\n      dup3\n      add\n        /* \"#utility.yul\":4455:4495   */\n      mstore\n        /* \"#utility.yul\":4512:4531   */\n      0x84\n      add\n        /* \"Provote.sol\":1807:1915  require(... */\n      tag_67\n        /* \"#utility.yul\":4305:4537   */\n      jump\n        /* \"Provote.sol\":1807:1915  require(... */\n    tag_108:\n      sub(shl(0xa0, 0x01), 0x01)\n        /* \"Provote.sol\":1934:1947  voters[voter] */\n      dup2\n      and\n      0x00\n      swap1\n      dup2\n      mstore\n        /* \"Provote.sol\":1934:1940  voters */\n      0x02\n        /* \"Provote.sol\":1934:1947  voters[voter] */\n      0x20\n      mstore\n      0x40\n      swap1\n      keccak256\n        /* \"Provote.sol\":1934:1953  voters[voter].voted */\n      sload\n      0xff\n      and\n        /* \"Provote.sol\":1933:1953  !voters[voter].voted */\n      iszero\n        /* \"Provote.sol\":1925:1996  require(!voters[voter].voted, \"The current voter has not voted before\") */\n      tag_111\n      jumpi\n      mload(0x40)\n      shl(0xe5, 0x461bcd)\n      dup2\n      mstore\n        /* \"#utility.yul\":3170:3172   */\n      0x20\n        /* \"Provote.sol\":1925:1996  require(!voters[voter].voted, \"The current voter has not voted before\") */\n      0x04\n      dup3\n      add\n        /* \"#utility.yul\":3152:3173   */\n      mstore\n        /* \"#utility.yul\":3209:3211   */\n      0x26\n        /* \"#utility.yul\":3189:3207   */\n      0x24\n      dup3\n      add\n        /* \"#utility.yul\":3182:3212   */\n      mstore\n        /* \"#utility.yul\":3248:3282   */\n      0x5468652063757272656e7420766f74657220686173206e6f7420766f74656420\n        /* \"#utility.yul\":3228:3246   */\n      0x44\n      dup3\n      add\n        /* \"#utility.yul\":3221:3283   */\n      mstore\n      shl(0xd0, 0x6265666f7265)\n        /* \"#utility.yul\":3299:3317   */\n      0x64\n      dup3\n      add\n        /* \"#utility.yul\":3292:3328   */\n      mstore\n        /* \"#utility.yul\":3345:3364   */\n      0x84\n      add\n        /* \"Provote.sol\":1925:1996  require(!voters[voter].voted, \"The current voter has not voted before\") */\n      tag_67\n        /* \"#utility.yul\":3142:3370   */\n      jump\n        /* \"Provote.sol\":1925:1996  require(!voters[voter].voted, \"The current voter has not voted before\") */\n    tag_111:\n      sub(shl(0xa0, 0x01), 0x01)\n        /* \"Provote.sol\":2014:2027  voters[voter] */\n      dup2\n      and\n      0x00\n      swap1\n      dup2\n      mstore\n        /* \"Provote.sol\":2014:2020  voters */\n      0x02\n        /* \"Provote.sol\":2014:2027  voters[voter] */\n      0x20\n      dup2\n      swap1\n      mstore\n      0x40\n      swap1\n      swap2\n      keccak256\n        /* \"Provote.sol\":2014:2039  voters[voter].rightToVote */\n      add\n      sload\n      0xff\n      and\n        /* \"Provote.sol\":2014:2048  voters[voter].rightToVote == false */\n      iszero\n        /* \"Provote.sol\":2006:2077  require(voters[voter].rightToVote == false, \"User not allowed to vote\") */\n      tag_114\n      jumpi\n      mload(0x40)\n      shl(0xe5, 0x461bcd)\n      dup2\n      mstore\n        /* \"#utility.yul\":2817:2819   */\n      0x20\n        /* \"Provote.sol\":2006:2077  require(voters[voter].rightToVote == false, \"User not allowed to vote\") */\n      0x04\n      dup3\n      add\n        /* \"#utility.yul\":2799:2820   */\n      mstore\n        /* \"#utility.yul\":2856:2858   */\n      0x18\n        /* \"#utility.yul\":2836:2854   */\n      0x24\n      dup3\n      add\n        /* \"#utility.yul\":2829:2859   */\n      mstore\n        /* \"#utility.yul\":2895:2921   */\n      0x55736572206e6f7420616c6c6f77656420746f20766f74650000000000000000\n        /* \"#utility.yul\":2875:2893   */\n      0x44\n      dup3\n      add\n        /* \"#utility.yul\":2868:2922   */\n      mstore\n        /* \"#utility.yul\":2939:2957   */\n      0x64\n      add\n        /* \"Provote.sol\":2006:2077  require(voters[voter].rightToVote == false, \"User not allowed to vote\") */\n      tag_67\n        /* \"#utility.yul\":2789:2963   */\n      jump\n        /* \"Provote.sol\":2006:2077  require(voters[voter].rightToVote == false, \"User not allowed to vote\") */\n    tag_114:\n      sub(shl(0xa0, 0x01), 0x01)\n        /* \"Provote.sol\":2088:2101  voters[voter] */\n      and\n      0x00\n      swap1\n      dup2\n      mstore\n        /* \"Provote.sol\":2088:2094  voters */\n      0x02\n        /* \"Provote.sol\":2088:2101  voters[voter] */\n      0x20\n      dup2\n      swap1\n      mstore\n      0x40\n      swap1\n      swap2\n      keccak256\n        /* \"Provote.sol\":2088:2113  voters[voter].rightToVote */\n      add\n        /* \"Provote.sol\":2088:2120  voters[voter].rightToVote = true */\n      dup1\n      sload\n      not(0xff)\n      and\n      0x01\n      or\n      swap1\n      sstore\n        /* \"Provote.sol\":1741:2127  function registerVoter(address voter) public restricted {... */\n      jump\t// out\n        /* \"Provote.sol\":1468:1545  function endCampaign() public restricted {... */\n    tag_45:\n        /* \"Provote.sol\":1430:1443  INECPERSONNEL */\n      and(sub(shl(0xa0, 0x01), 0x01), sload(0x00))\n        /* \"Provote.sol\":1416:1426  msg.sender */\n      caller\n        /* \"Provote.sol\":1416:1443  msg.sender == INECPERSONNEL */\n      eq\n        /* \"Provote.sol\":1408:1444  require(msg.sender == INECPERSONNEL) */\n      tag_118\n      jumpi\n      0x00\n      dup1\n      revert\n    tag_118:\n        /* \"Provote.sol\":1533:1538  false */\n      0x00\n        /* \"Provote.sol\":1519:1538  campaignDay = false */\n      dup1\n      sload\n      not(shl(0xa0, 0xff))\n      and\n      swap1\n      sstore\n        /* \"Provote.sol\":1468:1545  function endCampaign() public restricted {... */\n      jump\t// out\n        /* \"Provote.sol\":901:926  string public description */\n    tag_47:\n      0x01\n      dup1\n      sload\n      tag_120\n      swap1\n      tag_97\n      jump\t// in\n    tag_120:\n      dup1\n      0x1f\n      add\n      0x20\n      dup1\n      swap2\n      div\n      mul\n      0x20\n      add\n      mload(0x40)\n      swap1\n      dup2\n      add\n      0x40\n      mstore\n      dup1\n      swap3\n      swap2\n      swap1\n      dup2\n      dup2\n      mstore\n      0x20\n      add\n      dup3\n      dup1\n      sload\n      tag_121\n      swap1\n      tag_97\n      jump\t// in\n    tag_121:\n      dup1\n      iszero\n      tag_122\n      jumpi\n      dup1\n      0x1f\n      lt\n      tag_123\n      jumpi\n      0x0100\n      dup1\n      dup4\n      sload\n      div\n      mul\n      dup4\n      mstore\n      swap2\n      0x20\n      add\n      swap2\n      jump(tag_122)\n    tag_123:\n      dup3\n      add\n      swap2\n      swap1\n      0x00\n      mstore\n      keccak256(0x00, 0x20)\n      swap1\n    tag_124:\n      dup2\n      sload\n      dup2\n      mstore\n      swap1\n      0x01\n      add\n      swap1\n      0x20\n      add\n      dup1\n      dup4\n      gt\n      tag_124\n      jumpi\n      dup3\n      swap1\n      sub\n      0x1f\n      and\n      dup3\n      add\n      swap2\n    tag_122:\n      pop\n      pop\n      pop\n      pop\n      pop\n      dup2\n      jump\t// out\n        /* \"Provote.sol\":3041:3252  function winnerName() public view returns (string memory candidateName) {... */\n    tag_63:\n        /* \"Provote.sol\":3131:3142  campaignDay */\n      sload(0x00)\n        /* \"Provote.sol\":3084:3111  string memory candidateName */\n      0x60\n      swap1\n      shl(0xa0, 0x01)\n        /* \"Provote.sol\":3131:3142  campaignDay */\n      swap1\n      div\n      0xff\n      and\n        /* \"Provote.sol\":3131:3151  campaignDay == false */\n      iszero\n        /* \"Provote.sol\":3123:3152  require(campaignDay == false) */\n      tag_126\n      jumpi\n      0x00\n      dup1\n      revert\n    tag_126:\n        /* \"Provote.sol\":3170:3181  countingDay */\n      sload(0x00)\n      0xff\n      shl(0xa8, 0x01)\n      swap1\n      swap2\n      div\n      and\n        /* \"Provote.sol\":3170:3189  countingDay == true */\n      iszero\n      iszero\n      0x01\n      eq\n        /* \"Provote.sol\":3162:3190  require(countingDay == true) */\n      tag_127\n      jumpi\n      0x00\n      dup1\n      revert\n    tag_127:\n        /* \"Provote.sol\":3217:3227  candidates */\n      0x03\n        /* \"Provote.sol\":3228:3239  countVote() */\n      tag_128\n        /* \"Provote.sol\":3228:3237  countVote */\n      tag_23\n        /* \"Provote.sol\":3228:3239  countVote() */\n      jump\t// in\n    tag_128:\n        /* \"Provote.sol\":3217:3240  candidates[countVote()] */\n      dup2\n      sload\n      dup2\n      lt\n      tag_129\n      jumpi\n      mstore(0x00, shl(0xe0, 0x4e487b71))\n      mstore(0x04, 0x32)\n      revert(0x00, 0x24)\n    tag_129:\n      swap1\n      0x00\n      mstore\n      keccak256(0x00, 0x20)\n      swap1\n      0x02\n      mul\n      add\n        /* \"Provote.sol\":3217:3245  candidates[countVote()].name */\n      0x00\n      add\n        /* \"Provote.sol\":3201:3245  candidateName = candidates[countVote()].name */\n      dup1\n      sload\n      tag_131\n      swap1\n      tag_97\n      jump\t// in\n    tag_131:\n      dup1\n      0x1f\n      add\n      0x20\n      dup1\n      swap2\n      div\n      mul\n      0x20\n      add\n      mload(0x40)\n      swap1\n      dup2\n      add\n      0x40\n      mstore\n      dup1\n      swap3\n      swap2\n      swap1\n      dup2\n      dup2\n      mstore\n      0x20\n      add\n      dup3\n      dup1\n      sload\n      tag_132\n      swap1\n      tag_97\n      jump\t// in\n    tag_132:\n      dup1\n      iszero\n      tag_133\n      jumpi\n      dup1\n      0x1f\n      lt\n      tag_134\n      jumpi\n      0x0100\n      dup1\n      dup4\n      sload\n      div\n      mul\n      dup4\n      mstore\n      swap2\n      0x20\n      add\n      swap2\n      jump(tag_133)\n    tag_134:\n      dup3\n      add\n      swap2\n      swap1\n      0x00\n      mstore\n      keccak256(0x00, 0x20)\n      swap1\n    tag_135:\n      dup2\n      sload\n      dup2\n      mstore\n      swap1\n      0x01\n      add\n      swap1\n      0x20\n      add\n      dup1\n      dup4\n      gt\n      tag_135\n      jumpi\n      dup3\n      swap1\n      sub\n      0x1f\n      and\n      dup3\n      add\n      swap2\n    tag_133:\n      pop\n      pop\n      pop\n      pop\n      pop\n      swap1\n      pop\n        /* \"Provote.sol\":3041:3252  function winnerName() public view returns (string memory candidateName) {... */\n      swap1\n      jump\t// out\n        /* \"#utility.yul\":14:320   */\n    tag_42:\n        /* \"#utility.yul\":73:79   */\n      0x00\n        /* \"#utility.yul\":126:128   */\n      0x20\n        /* \"#utility.yul\":114:123   */\n      dup3\n        /* \"#utility.yul\":105:112   */\n      dup5\n        /* \"#utility.yul\":101:124   */\n      sub\n        /* \"#utility.yul\":97:129   */\n      slt\n        /* \"#utility.yul\":94:96   */\n      iszero\n      tag_138\n      jumpi\n        /* \"#utility.yul\":147:153   */\n      dup1\n        /* \"#utility.yul\":139:145   */\n      dup2\n        /* \"#utility.yul\":132:154   */\n      revert\n        /* \"#utility.yul\":94:96   */\n    tag_138:\n        /* \"#utility.yul\":178:201   */\n      dup2\n      calldataload\n      sub(shl(0xa0, 0x01), 0x01)\n        /* \"#utility.yul\":230:261   */\n      dup2\n      and\n        /* \"#utility.yul\":220:262   */\n      dup2\n      eq\n        /* \"#utility.yul\":210:212   */\n      tag_139\n      jumpi\n        /* \"#utility.yul\":281:287   */\n      dup2\n        /* \"#utility.yul\":273:279   */\n      dup3\n        /* \"#utility.yul\":266:288   */\n      revert\n        /* \"#utility.yul\":210:212   */\n    tag_139:\n        /* \"#utility.yul\":309:314   */\n      swap4\n        /* \"#utility.yul\":84:320   */\n      swap3\n      pop\n      pop\n      pop\n      jump\t// out\n        /* \"#utility.yul\":325:515   */\n    tag_20:\n        /* \"#utility.yul\":384:390   */\n      0x00\n        /* \"#utility.yul\":437:439   */\n      0x20\n        /* \"#utility.yul\":425:434   */\n      dup3\n        /* \"#utility.yul\":416:423   */\n      dup5\n        /* \"#utility.yul\":412:435   */\n      sub\n        /* \"#utility.yul\":408:440   */\n      slt\n        /* \"#utility.yul\":405:407   */\n      iszero\n      tag_141\n      jumpi\n        /* \"#utility.yul\":458:464   */\n      dup1\n        /* \"#utility.yul\":450:456   */\n      dup2\n        /* \"#utility.yul\":443:465   */\n      revert\n        /* \"#utility.yul\":405:407   */\n    tag_141:\n      pop\n        /* \"#utility.yul\":486:509   */\n      calldataload\n      swap2\n        /* \"#utility.yul\":395:515   */\n      swap1\n      pop\n      jump\t// out\n        /* \"#utility.yul\":520:996   */\n    tag_142:\n        /* \"#utility.yul\":562:565   */\n      0x00\n        /* \"#utility.yul\":600:605   */\n      dup2\n        /* \"#utility.yul\":594:606   */\n      mload\n        /* \"#utility.yul\":627:633   */\n      dup1\n        /* \"#utility.yul\":622:625   */\n      dup5\n        /* \"#utility.yul\":615:634   */\n      mstore\n        /* \"#utility.yul\":652:655   */\n      dup2\n        /* \"#utility.yul\":664:826   */\n    tag_144:\n        /* \"#utility.yul\":678:684   */\n      dup2\n        /* \"#utility.yul\":675:676   */\n      dup2\n        /* \"#utility.yul\":672:685   */\n      lt\n        /* \"#utility.yul\":664:826   */\n      iszero\n      tag_146\n      jumpi\n        /* \"#utility.yul\":740:744   */\n      0x20\n        /* \"#utility.yul\":796:809   */\n      dup2\n      dup6\n      add\n        /* \"#utility.yul\":792:814   */\n      dup2\n      add\n        /* \"#utility.yul\":786:815   */\n      mload\n        /* \"#utility.yul\":768:779   */\n      dup7\n      dup4\n      add\n        /* \"#utility.yul\":764:784   */\n      dup3\n      add\n        /* \"#utility.yul\":757:816   */\n      mstore\n        /* \"#utility.yul\":693:705   */\n      add\n        /* \"#utility.yul\":664:826   */\n      jump(tag_144)\n    tag_146:\n        /* \"#utility.yul\":844:850   */\n      dup2\n        /* \"#utility.yul\":841:842   */\n      dup2\n        /* \"#utility.yul\":838:851   */\n      gt\n        /* \"#utility.yul\":835:837   */\n      iszero\n      tag_147\n      jumpi\n        /* \"#utility.yul\":910:913   */\n      dup3\n        /* \"#utility.yul\":903:907   */\n      0x20\n        /* \"#utility.yul\":894:900   */\n      dup4\n        /* \"#utility.yul\":889:892   */\n      dup8\n        /* \"#utility.yul\":885:901   */\n      add\n        /* \"#utility.yul\":881:908   */\n      add\n        /* \"#utility.yul\":874:914   */\n      mstore\n        /* \"#utility.yul\":835:837   */\n    tag_147:\n      pop\n        /* \"#utility.yul\":978:980   */\n      0x1f\n        /* \"#utility.yul\":957:972   */\n      add\n      not(0x1f)\n        /* \"#utility.yul\":953:982   */\n      and\n        /* \"#utility.yul\":944:983   */\n      swap3\n      swap1\n      swap3\n      add\n        /* \"#utility.yul\":985:989   */\n      0x20\n        /* \"#utility.yul\":940:990   */\n      add\n      swap3\n        /* \"#utility.yul\":570:996   */\n      swap2\n      pop\n      pop\n      jump\t// out\n        /* \"#utility.yul\":1745:1965   */\n    tag_49:\n        /* \"#utility.yul\":1894:1896   */\n      0x20\n        /* \"#utility.yul\":1883:1892   */\n      dup2\n        /* \"#utility.yul\":1876:1897   */\n      mstore\n        /* \"#utility.yul\":1857:1861   */\n      0x00\n        /* \"#utility.yul\":1914:1959   */\n      tag_139\n        /* \"#utility.yul\":1955:1957   */\n      0x20\n        /* \"#utility.yul\":1944:1953   */\n      dup4\n        /* \"#utility.yul\":1940:1958   */\n      add\n        /* \"#utility.yul\":1932:1938   */\n      dup5\n        /* \"#utility.yul\":1914:1959   */\n      tag_142\n      jump\t// in\n        /* \"#utility.yul\":1970:2261   */\n    tag_37:\n        /* \"#utility.yul\":2147:2149   */\n      0x40\n        /* \"#utility.yul\":2136:2145   */\n      dup2\n        /* \"#utility.yul\":2129:2150   */\n      mstore\n        /* \"#utility.yul\":2110:2114   */\n      0x00\n        /* \"#utility.yul\":2167:2212   */\n      tag_154\n        /* \"#utility.yul\":2208:2210   */\n      0x40\n        /* \"#utility.yul\":2197:2206   */\n      dup4\n        /* \"#utility.yul\":2193:2211   */\n      add\n        /* \"#utility.yul\":2185:2191   */\n      dup6\n        /* \"#utility.yul\":2167:2212   */\n      tag_142\n      jump\t// in\n    tag_154:\n        /* \"#utility.yul\":2159:2212   */\n      swap1\n      pop\n        /* \"#utility.yul\":2248:2254   */\n      dup3\n        /* \"#utility.yul\":2243:2245   */\n      0x20\n        /* \"#utility.yul\":2232:2241   */\n      dup4\n        /* \"#utility.yul\":2228:2246   */\n      add\n        /* \"#utility.yul\":2221:2255   */\n      mstore\n        /* \"#utility.yul\":2119:2261   */\n      swap4\n      swap3\n      pop\n      pop\n      pop\n      jump\t// out\n        /* \"#utility.yul\":5129:5257   */\n    tag_81:\n        /* \"#utility.yul\":5169:5172   */\n      0x00\n        /* \"#utility.yul\":5200:5201   */\n      dup3\n        /* \"#utility.yul\":5196:5202   */\n      not\n        /* \"#utility.yul\":5193:5194   */\n      dup3\n        /* \"#utility.yul\":5190:5203   */\n      gt\n        /* \"#utility.yul\":5187:5189   */\n      iszero\n      tag_165\n      jumpi\n        /* \"#utility.yul\":5206:5224   */\n      tag_165\n      tag_166\n      jump\t// in\n    tag_165:\n      pop\n        /* \"#utility.yul\":5242:5251   */\n      add\n      swap1\n        /* \"#utility.yul\":5177:5257   */\n      jump\t// out\n        /* \"#utility.yul\":5262:5642   */\n    tag_97:\n        /* \"#utility.yul\":5341:5342   */\n      0x01\n        /* \"#utility.yul\":5337:5349   */\n      dup2\n      dup2\n      shr\n      swap1\n        /* \"#utility.yul\":5384:5396   */\n      dup3\n      and\n      dup1\n        /* \"#utility.yul\":5405:5407   */\n      tag_168\n      jumpi\n        /* \"#utility.yul\":5459:5463   */\n      0x7f\n        /* \"#utility.yul\":5451:5457   */\n      dup3\n        /* \"#utility.yul\":5447:5464   */\n      and\n        /* \"#utility.yul\":5437:5464   */\n      swap2\n      pop\n        /* \"#utility.yul\":5405:5407   */\n    tag_168:\n        /* \"#utility.yul\":5512:5514   */\n      0x20\n        /* \"#utility.yul\":5504:5510   */\n      dup3\n        /* \"#utility.yul\":5501:5515   */\n      lt\n        /* \"#utility.yul\":5481:5499   */\n      dup2\n        /* \"#utility.yul\":5478:5516   */\n      eq\n        /* \"#utility.yul\":5475:5477   */\n      iszero\n      tag_169\n      jumpi\n        /* \"#utility.yul\":5558:5568   */\n      0x4e487b71\n        /* \"#utility.yul\":5553:5556   */\n      0xe0\n        /* \"#utility.yul\":5549:5569   */\n      shl\n        /* \"#utility.yul\":5546:5547   */\n      0x00\n        /* \"#utility.yul\":5539:5570   */\n      mstore\n        /* \"#utility.yul\":5593:5597   */\n      0x22\n        /* \"#utility.yul\":5590:5591   */\n      0x04\n        /* \"#utility.yul\":5583:5598   */\n      mstore\n        /* \"#utility.yul\":5621:5625   */\n      0x24\n        /* \"#utility.yul\":5618:5619   */\n      0x00\n        /* \"#utility.yul\":5611:5626   */\n      revert\n        /* \"#utility.yul\":5475:5477   */\n    tag_169:\n      pop\n        /* \"#utility.yul\":5317:5642   */\n      swap2\n      swap1\n      pop\n      jump\t// out\n        /* \"#utility.yul\":5647:5782   */\n    tag_92:\n        /* \"#utility.yul\":5686:5689   */\n      0x00\n      not(0x00)\n        /* \"#utility.yul\":5707:5724   */\n      dup3\n      eq\n        /* \"#utility.yul\":5704:5706   */\n      iszero\n      tag_172\n      jumpi\n        /* \"#utility.yul\":5727:5745   */\n      tag_172\n      tag_166\n      jump\t// in\n    tag_172:\n      pop\n        /* \"#utility.yul\":5774:5775   */\n      0x01\n        /* \"#utility.yul\":5763:5776   */\n      add\n      swap1\n        /* \"#utility.yul\":5694:5782   */\n      jump\t// out\n        /* \"#utility.yul\":5787:5914   */\n    tag_166:\n        /* \"#utility.yul\":5848:5858   */\n      0x4e487b71\n        /* \"#utility.yul\":5843:5846   */\n      0xe0\n        /* \"#utility.yul\":5839:5859   */\n      shl\n        /* \"#utility.yul\":5836:5837   */\n      0x00\n        /* \"#utility.yul\":5829:5860   */\n      mstore\n        /* \"#utility.yul\":5879:5883   */\n      0x11\n        /* \"#utility.yul\":5876:5877   */\n      0x04\n        /* \"#utility.yul\":5869:5884   */\n      mstore\n        /* \"#utility.yul\":5903:5907   */\n      0x24\n        /* \"#utility.yul\":5900:5901   */\n      0x00\n        /* \"#utility.yul\":5893:5908   */\n      revert\n\n    auxdata: 0xa26469706673582212208a2dd29c3b28d43466d1568ec4647f294eb8c9b8a846167af4c6bf9a759ff75a64736f6c63430008040033\n}\n","bytecode":{"linkReferences":{},"object":"60806040526000805461ffff60a01b1916600160a01b1790553480156200002557600080fd5b5060405162000e7e38038062000e7e833981016040819052620000489162000276565b600080546001600160a01b0319166001600160a01b03831617905581516200007890600190602085019062000122565b5060005b8351811015620001185760036040518060400160405280868481518110620000b457634e487b7160e01b600052603260045260246000fd5b6020908102919091018101518252600091810182905283546001810185559382529081902082518051939460020290910192620000f5928492019062000122565b5060208201518160010155505080806200010f90620003ef565b9150506200007c565b505050506200042d565b8280546200013090620003b2565b90600052602060002090601f0160209004810192826200015457600085556200019f565b82601f106200016f57805160ff19168380011785556200019f565b828001600101855582156200019f579182015b828111156200019f57825182559160200191906001019062000182565b50620001ad929150620001b1565b5090565b5b80821115620001ad5760008155600101620001b2565b80516001600160a01b0381168114620001e057600080fd5b919050565b600082601f830112620001f6578081fd5b81516001600160401b0381111562000212576200021262000417565b602062000228601f8301601f191682016200037f565b82815285828487010111156200023c578384fd5b835b838110156200025b5785810183015182820184015282016200023e565b838111156200026c57848385840101525b5095945050505050565b6000806000606084860312156200028b578283fd5b83516001600160401b0380821115620002a2578485fd5b818601915086601f830112620002b6578485fd5b8151602082821115620002cd57620002cd62000417565b8160051b620002de8282016200037f565b8381528281019086840183880185018d1015620002f9578a8bfd5b8a93505b858410156200033b5780518781111562000315578b8cfd5b620003258e87838c0101620001e5565b84525060019390930192918401918401620002fd565b50928a01519298509194505050508082111562000356578384fd5b506200036586828701620001e5565b9250506200037660408501620001c8565b90509250925092565b604051601f8201601f191681016001600160401b0381118282101715620003aa57620003aa62000417565b604052919050565b600181811c90821680620003c757607f821691505b60208210811415620003e957634e487b7160e01b600052602260045260246000fd5b50919050565b60006000198214156200041057634e487b7160e01b81526011600452602481fd5b5060010190565b634e487b7160e01b600052604160045260246000fd5b610a41806200043d6000396000f3fe608060405234801561001057600080fd5b50600436106100cf5760003560e01c806338db6dd31161008c5780639c0b97b5116100665780639c0b97b514610189578063a3ec138d1461019d578063db9e19c6146101f1578063e2ba53f01461021c57600080fd5b806338db6dd31461015957806371aac7f91461016c5780637284e4161461017457600080fd5b80630121b93f146100d45780631a6cd2fd146100e9578063232039e01461010457806330a56347146101285780633477ee2e1461013057806338c4843314610151575b600080fd5b6100e76100e23660046108ef565b610224565b005b6100f16103fb565b6040519081526020015b60405180910390f35b60005461011890600160a81b900460ff1681565b60405190151581526020016100fb565b6003546100f1565b61014361013e3660046108ef565b610494565b6040516100fb929190610965565b6100e7610550565b6100e76101673660046108c1565b61057c565b6100e7610711565b61017c610737565b6040516100fb9190610952565b60005461011890600160a01b900460ff1681565b6101d26101ab3660046108c1565b600260208190526000918252604090912080546001820154919092015460ff928316921683565b60408051931515845260208401929092521515908201526060016100fb565b600054610204906001600160a01b031681565b6040516001600160a01b0390911681526020016100fb565b61017c6107c5565b600054600160a01b900460ff16156102945760405162461bcd60e51b815260206004820152602860248201527f4d616b652073757265206e6f206f6e652063616e20766f7465206f6e2063616d604482015267706169676e44617960c01b60648201526084015b60405180910390fd5b600054600160a81b900460ff16156102fa5760405162461bcd60e51b8152602060048201526024808201527f4d616b657320737572652c206974277320636f756e74696e6744617920626566604482015263037b932960e51b606482015260840161028b565b3360009081526002602081905260409091209081015460ff166103565760405162461bcd60e51b8152602060048201526014602482015273486173206e6f20726967687420746f20766f746560601b604482015260640161028b565b805460ff161561039d5760405162461bcd60e51b815260206004820152601260248201527143616e277420766f7465207477696365202160701b604482015260640161028b565b805460ff19166001908117825581810183905560038054849081106103d257634e487b7160e01b600052603260045260246000fd5b906000526020600020906002020160010160008282546103f29190610987565b90915550505050565b600080805b60035481101561048f57816003828154811061042c57634e487b7160e01b600052603260045260246000fd5b906000526020600020906002020160010154111561047d576003818154811061046557634e487b7160e01b600052603260045260246000fd5b90600052602060002090600202016001015491508092505b80610487816109da565b915050610400565b505090565b600381815481106104a457600080fd5b90600052602060002090600202016000915090508060000180546104c79061099f565b80601f01602080910402602001604051908101604052809291908181526020018280546104f39061099f565b80156105405780601f1061051557610100808354040283529160200191610540565b820191906000526020600020905b81548152906001019060200180831161052357829003601f168201915b5050505050908060010154905082565b6000546001600160a01b0316331461056757600080fd5b6000805460ff60a81b1916600160a81b179055565b6000546001600160a01b0316331461059357600080fd5b600054600160a01b900460ff1615156001146106045760405162461bcd60e51b815260206004820152602a60248201527f546861742063616d7061696e67446179206973207472756520666f7220746869604482015269399032b632b1ba34b7b760b11b606482015260840161028b565b6001600160a01b03811660009081526002602052604090205460ff161561067c5760405162461bcd60e51b815260206004820152602660248201527f5468652063757272656e7420766f74657220686173206e6f7420766f746564206044820152656265666f726560d01b606482015260840161028b565b6001600160a01b0381166000908152600260208190526040909120015460ff16156106e95760405162461bcd60e51b815260206004820152601860248201527f55736572206e6f7420616c6c6f77656420746f20766f74650000000000000000604482015260640161028b565b6001600160a01b0316600090815260026020819052604090912001805460ff19166001179055565b6000546001600160a01b0316331461072857600080fd5b6000805460ff60a01b19169055565b600180546107449061099f565b80601f01602080910402602001604051908101604052809291908181526020018280546107709061099f565b80156107bd5780601f10610792576101008083540402835291602001916107bd565b820191906000526020600020905b8154815290600101906020018083116107a057829003601f168201915b505050505081565b600054606090600160a01b900460ff16156107df57600080fd5b600054600160a81b900460ff1615156001146107fa57600080fd5b60036108046103fb565b8154811061082257634e487b7160e01b600052603260045260246000fd5b9060005260206000209060020201600001805461083e9061099f565b80601f016020809104026020016040519081016040528092919081815260200182805461086a9061099f565b80156108b75780601f1061088c576101008083540402835291602001916108b7565b820191906000526020600020905b81548152906001019060200180831161089a57829003601f168201915b5050505050905090565b6000602082840312156108d2578081fd5b81356001600160a01b03811681146108e8578182fd5b9392505050565b600060208284031215610900578081fd5b5035919050565b60008151808452815b8181101561092c57602081850181015186830182015201610910565b8181111561093d5782602083870101525b50601f01601f19169290920160200192915050565b6020815260006108e86020830184610907565b6040815260006109786040830185610907565b90508260208301529392505050565b6000821982111561099a5761099a6109f5565b500190565b600181811c908216806109b357607f821691505b602082108114156109d457634e487b7160e01b600052602260045260246000fd5b50919050565b60006000198214156109ee576109ee6109f5565b5060010190565b634e487b7160e01b600052601160045260246000fdfea26469706673582212208a2dd29c3b28d43466d1568ec4647f294eb8c9b8a846167af4c6bf9a759ff75a64736f6c63430008040033","opcodes":"PUSH1 0x80 PUSH1 0x40 MSTORE PUSH1 0x0 DUP1 SLOAD PUSH2 0xFFFF PUSH1 0xA0 SHL NOT AND PUSH1 0x1 PUSH1 0xA0 SHL OR SWAP1 SSTORE CALLVALUE DUP1 ISZERO PUSH3 0x25 JUMPI PUSH1 0x0 DUP1 REVERT JUMPDEST POP PUSH1 0x40 MLOAD PUSH3 0xE7E CODESIZE SUB DUP1 PUSH3 0xE7E DUP4 CODECOPY DUP2 ADD PUSH1 0x40 DUP2 SWAP1 MSTORE PUSH3 0x48 SWAP2 PUSH3 0x276 JUMP JUMPDEST PUSH1 0x0 DUP1 SLOAD PUSH1 0x1 PUSH1 0x1 PUSH1 0xA0 SHL SUB NOT AND PUSH1 0x1 PUSH1 0x1 PUSH1 0xA0 SHL SUB DUP4 AND OR SWAP1 SSTORE DUP2 MLOAD PUSH3 0x78 SWAP1 PUSH1 0x1 SWAP1 PUSH1 0x20 DUP6 ADD SWAP1 PUSH3 0x122 JUMP JUMPDEST POP PUSH1 0x0 JUMPDEST DUP4 MLOAD DUP2 LT ISZERO PUSH3 0x118 JUMPI PUSH1 0x3 PUSH1 0x40 MLOAD DUP1 PUSH1 0x40 ADD PUSH1 0x40 MSTORE DUP1 DUP7 DUP5 DUP2 MLOAD DUP2 LT PUSH3 0xB4 JUMPI PUSH4 0x4E487B71 PUSH1 0xE0 SHL PUSH1 0x0 MSTORE PUSH1 0x32 PUSH1 0x4 MSTORE PUSH1 0x24 PUSH1 0x0 REVERT JUMPDEST PUSH1 0x20 SWAP1 DUP2 MUL SWAP2 SWAP1 SWAP2 ADD DUP2 ADD MLOAD DUP3 MSTORE PUSH1 0x0 SWAP2 DUP2 ADD DUP3 SWAP1 MSTORE DUP4 SLOAD PUSH1 0x1 DUP2 ADD DUP6 SSTORE SWAP4 DUP3 MSTORE SWAP1 DUP2 SWAP1 KECCAK256 DUP3 MLOAD DUP1 MLOAD SWAP4 SWAP5 PUSH1 0x2 MUL SWAP1 SWAP2 ADD SWAP3 PUSH3 0xF5 SWAP3 DUP5 SWAP3 ADD SWAP1 PUSH3 0x122 JUMP JUMPDEST POP PUSH1 0x20 DUP3 ADD MLOAD DUP2 PUSH1 0x1 ADD SSTORE POP POP DUP1 DUP1 PUSH3 0x10F SWAP1 PUSH3 0x3EF JUMP JUMPDEST SWAP2 POP POP PUSH3 0x7C JUMP JUMPDEST POP POP POP POP PUSH3 0x42D JUMP JUMPDEST DUP3 DUP1 SLOAD PUSH3 0x130 SWAP1 PUSH3 0x3B2 JUMP JUMPDEST SWAP1 PUSH1 0x0 MSTORE PUSH1 0x20 PUSH1 0x0 KECCAK256 SWAP1 PUSH1 0x1F ADD PUSH1 0x20 SWAP1 DIV DUP2 ADD SWAP3 DUP3 PUSH3 0x154 JUMPI PUSH1 0x0 DUP6 SSTORE PUSH3 0x19F JUMP JUMPDEST DUP3 PUSH1 0x1F LT PUSH3 0x16F JUMPI DUP1 MLOAD PUSH1 0xFF NOT AND DUP4 DUP1 ADD OR DUP6 SSTORE PUSH3 0x19F JUMP JUMPDEST DUP3 DUP1 ADD PUSH1 0x1 ADD DUP6 SSTORE DUP3 ISZERO PUSH3 0x19F JUMPI SWAP2 DUP3 ADD JUMPDEST DUP3 DUP2 GT ISZERO PUSH3 0x19F JUMPI DUP3 MLOAD DUP3 SSTORE SWAP2 PUSH1 0x20 ADD SWAP2 SWAP1 PUSH1 0x1 ADD SWAP1 PUSH3 0x182 JUMP JUMPDEST POP PUSH3 0x1AD SWAP3 SWAP2 POP PUSH3 0x1B1 JUMP JUMPDEST POP SWAP1 JUMP JUMPDEST JUMPDEST DUP1 DUP3 GT ISZERO PUSH3 0x1AD JUMPI PUSH1 0x0 DUP2 SSTORE PUSH1 0x1 ADD PUSH3 0x1B2 JUMP JUMPDEST DUP1 MLOAD PUSH1 0x1 PUSH1 0x1 PUSH1 0xA0 SHL SUB DUP2 AND DUP2 EQ PUSH3 0x1E0 JUMPI PUSH1 0x0 DUP1 REVERT JUMPDEST SWAP2 SWAP1 POP JUMP JUMPDEST PUSH1 0x0 DUP3 PUSH1 0x1F DUP4 ADD SLT PUSH3 0x1F6 JUMPI DUP1 DUP2 REVERT JUMPDEST DUP2 MLOAD PUSH1 0x1 PUSH1 0x1 PUSH1 0x40 SHL SUB DUP2 GT ISZERO PUSH3 0x212 JUMPI PUSH3 0x212 PUSH3 0x417 JUMP JUMPDEST PUSH1 0x20 PUSH3 0x228 PUSH1 0x1F DUP4 ADD PUSH1 0x1F NOT AND DUP3 ADD PUSH3 0x37F JUMP JUMPDEST DUP3 DUP2 MSTORE DUP6 DUP3 DUP5 DUP8 ADD ADD GT ISZERO PUSH3 0x23C JUMPI DUP4 DUP5 REVERT JUMPDEST DUP4 JUMPDEST DUP4 DUP2 LT ISZERO PUSH3 0x25B JUMPI DUP6 DUP2 ADD DUP4 ADD MLOAD DUP3 DUP3 ADD DUP5 ADD MSTORE DUP3 ADD PUSH3 0x23E JUMP JUMPDEST DUP4 DUP2 GT ISZERO PUSH3 0x26C JUMPI DUP5 DUP4 DUP6 DUP5 ADD ADD MSTORE JUMPDEST POP SWAP6 SWAP5 POP POP POP POP POP JUMP JUMPDEST PUSH1 0x0 DUP1 PUSH1 0x0 PUSH1 0x60 DUP5 DUP7 SUB SLT ISZERO PUSH3 0x28B JUMPI DUP3 DUP4 REVERT JUMPDEST DUP4 MLOAD PUSH1 0x1 PUSH1 0x1 PUSH1 0x40 SHL SUB DUP1 DUP3 GT ISZERO PUSH3 0x2A2 JUMPI DUP5 DUP6 REVERT JUMPDEST DUP2 DUP7 ADD SWAP2 POP DUP7 PUSH1 0x1F DUP4 ADD SLT PUSH3 0x2B6 JUMPI DUP5 DUP6 REVERT JUMPDEST DUP2 MLOAD PUSH1 0x20 DUP3 DUP3 GT ISZERO PUSH3 0x2CD JUMPI PUSH3 0x2CD PUSH3 0x417 JUMP JUMPDEST DUP2 PUSH1 0x5 SHL PUSH3 0x2DE DUP3 DUP3 ADD PUSH3 0x37F JUMP JUMPDEST DUP4 DUP2 MSTORE DUP3 DUP2 ADD SWAP1 DUP7 DUP5 ADD DUP4 DUP9 ADD DUP6 ADD DUP14 LT ISZERO PUSH3 0x2F9 JUMPI DUP11 DUP12 REVERT JUMPDEST DUP11 SWAP4 POP JUMPDEST DUP6 DUP5 LT ISZERO PUSH3 0x33B JUMPI DUP1 MLOAD DUP8 DUP2 GT ISZERO PUSH3 0x315 JUMPI DUP12 DUP13 REVERT JUMPDEST PUSH3 0x325 DUP15 DUP8 DUP4 DUP13 ADD ADD PUSH3 0x1E5 JUMP JUMPDEST DUP5 MSTORE POP PUSH1 0x1 SWAP4 SWAP1 SWAP4 ADD SWAP3 SWAP2 DUP5 ADD SWAP2 DUP5 ADD PUSH3 0x2FD JUMP JUMPDEST POP SWAP3 DUP11 ADD MLOAD SWAP3 SWAP9 POP SWAP2 SWAP5 POP POP POP POP DUP1 DUP3 GT ISZERO PUSH3 0x356 JUMPI DUP4 DUP5 REVERT JUMPDEST POP PUSH3 0x365 DUP7 DUP3 DUP8 ADD PUSH3 0x1E5 JUMP JUMPDEST SWAP3 POP POP PUSH3 0x376 PUSH1 0x40 DUP6 ADD PUSH3 0x1C8 JUMP JUMPDEST SWAP1 POP SWAP3 POP SWAP3 POP SWAP3 JUMP JUMPDEST PUSH1 0x40 MLOAD PUSH1 0x1F DUP3 ADD PUSH1 0x1F NOT AND DUP2 ADD PUSH1 0x1 PUSH1 0x1 PUSH1 0x40 SHL SUB DUP2 GT DUP3 DUP3 LT OR ISZERO PUSH3 0x3AA JUMPI PUSH3 0x3AA PUSH3 0x417 JUMP JUMPDEST PUSH1 0x40 MSTORE SWAP2 SWAP1 POP JUMP JUMPDEST PUSH1 0x1 DUP2 DUP2 SHR SWAP1 DUP3 AND DUP1 PUSH3 0x3C7 JUMPI PUSH1 0x7F DUP3 AND SWAP2 POP JUMPDEST PUSH1 0x20 DUP3 LT DUP2 EQ ISZERO PUSH3 0x3E9 JUMPI PUSH4 0x4E487B71 PUSH1 0xE0 SHL PUSH1 0x0 MSTORE PUSH1 0x22 PUSH1 0x4 MSTORE PUSH1 0x24 PUSH1 0x0 REVERT JUMPDEST POP SWAP2 SWAP1 POP JUMP JUMPDEST PUSH1 0x0 PUSH1 0x0 NOT DUP3 EQ ISZERO PUSH3 0x410 JUMPI PUSH4 0x4E487B71 PUSH1 0xE0 SHL DUP2 MSTORE PUSH1 0x11 PUSH1 0x4 MSTORE PUSH1 0x24 DUP2 REVERT JUMPDEST POP PUSH1 0x1 ADD SWAP1 JUMP JUMPDEST PUSH4 0x4E487B71 PUSH1 0xE0 SHL PUSH1 0x0 MSTORE PUSH1 0x41 PUSH1 0x4 MSTORE PUSH1 0x24 PUSH1 0x0 REVERT JUMPDEST PUSH2 0xA41 DUP1 PUSH3 0x43D PUSH1 0x0 CODECOPY PUSH1 0x0 RETURN INVALID PUSH1 0x80 PUSH1 0x40 MSTORE CALLVALUE DUP1 ISZERO PUSH2 0x10 JUMPI PUSH1 0x0 DUP1 REVERT JUMPDEST POP PUSH1 0x4 CALLDATASIZE LT PUSH2 0xCF JUMPI PUSH1 0x0 CALLDATALOAD PUSH1 0xE0 SHR DUP1 PUSH4 0x38DB6DD3 GT PUSH2 0x8C JUMPI DUP1 PUSH4 0x9C0B97B5 GT PUSH2 0x66 JUMPI DUP1 PUSH4 0x9C0B97B5 EQ PUSH2 0x189 JUMPI DUP1 PUSH4 0xA3EC138D EQ PUSH2 0x19D JUMPI DUP1 PUSH4 0xDB9E19C6 EQ PUSH2 0x1F1 JUMPI DUP1 PUSH4 0xE2BA53F0 EQ PUSH2 0x21C JUMPI PUSH1 0x0 DUP1 REVERT JUMPDEST DUP1 PUSH4 0x38DB6DD3 EQ PUSH2 0x159 JUMPI DUP1 PUSH4 0x71AAC7F9 EQ PUSH2 0x16C JUMPI DUP1 PUSH4 0x7284E416 EQ PUSH2 0x174 JUMPI PUSH1 0x0 DUP1 REVERT JUMPDEST DUP1 PUSH4 0x121B93F EQ PUSH2 0xD4 JUMPI DUP1 PUSH4 0x1A6CD2FD EQ PUSH2 0xE9 JUMPI DUP1 PUSH4 0x232039E0 EQ PUSH2 0x104 JUMPI DUP1 PUSH4 0x30A56347 EQ PUSH2 0x128 JUMPI DUP1 PUSH4 0x3477EE2E EQ PUSH2 0x130 JUMPI DUP1 PUSH4 0x38C48433 EQ PUSH2 0x151 JUMPI JUMPDEST PUSH1 0x0 DUP1 REVERT JUMPDEST PUSH2 0xE7 PUSH2 0xE2 CALLDATASIZE PUSH1 0x4 PUSH2 0x8EF JUMP JUMPDEST PUSH2 0x224 JUMP JUMPDEST STOP JUMPDEST PUSH2 0xF1 PUSH2 0x3FB JUMP JUMPDEST PUSH1 0x40 MLOAD SWAP1 DUP2 MSTORE PUSH1 0x20 ADD JUMPDEST PUSH1 0x40 MLOAD DUP1 SWAP2 SUB SWAP1 RETURN JUMPDEST PUSH1 0x0 SLOAD PUSH2 0x118 SWAP1 PUSH1 0x1 PUSH1 0xA8 SHL SWAP1 DIV PUSH1 0xFF AND DUP2 JUMP JUMPDEST PUSH1 0x40 MLOAD SWAP1 ISZERO ISZERO DUP2 MSTORE PUSH1 0x20 ADD PUSH2 0xFB JUMP JUMPDEST PUSH1 0x3 SLOAD PUSH2 0xF1 JUMP JUMPDEST PUSH2 0x143 PUSH2 0x13E CALLDATASIZE PUSH1 0x4 PUSH2 0x8EF JUMP JUMPDEST PUSH2 0x494 JUMP JUMPDEST PUSH1 0x40 MLOAD PUSH2 0xFB SWAP3 SWAP2 SWAP1 PUSH2 0x965 JUMP JUMPDEST PUSH2 0xE7 PUSH2 0x550 JUMP JUMPDEST PUSH2 0xE7 PUSH2 0x167 CALLDATASIZE PUSH1 0x4 PUSH2 0x8C1 JUMP JUMPDEST PUSH2 0x57C JUMP JUMPDEST PUSH2 0xE7 PUSH2 0x711 JUMP JUMPDEST PUSH2 0x17C PUSH2 0x737 JUMP JUMPDEST PUSH1 0x40 MLOAD PUSH2 0xFB SWAP2 SWAP1 PUSH2 0x952 JUMP JUMPDEST PUSH1 0x0 SLOAD PUSH2 0x118 SWAP1 PUSH1 0x1 PUSH1 0xA0 SHL SWAP1 DIV PUSH1 0xFF AND DUP2 JUMP JUMPDEST PUSH2 0x1D2 PUSH2 0x1AB CALLDATASIZE PUSH1 0x4 PUSH2 0x8C1 JUMP JUMPDEST PUSH1 0x2 PUSH1 0x20 DUP2 SWAP1 MSTORE PUSH1 0x0 SWAP2 DUP3 MSTORE PUSH1 0x40 SWAP1 SWAP2 KECCAK256 DUP1 SLOAD PUSH1 0x1 DUP3 ADD SLOAD SWAP2 SWAP1 SWAP3 ADD SLOAD PUSH1 0xFF SWAP3 DUP4 AND SWAP3 AND DUP4 JUMP JUMPDEST PUSH1 0x40 DUP1 MLOAD SWAP4 ISZERO ISZERO DUP5 MSTORE PUSH1 0x20 DUP5 ADD SWAP3 SWAP1 SWAP3 MSTORE ISZERO ISZERO SWAP1 DUP3 ADD MSTORE PUSH1 0x60 ADD PUSH2 0xFB JUMP JUMPDEST PUSH1 0x0 SLOAD PUSH2 0x204 SWAP1 PUSH1 0x1 PUSH1 0x1 PUSH1 0xA0 SHL SUB AND DUP2 JUMP JUMPDEST PUSH1 0x40 MLOAD PUSH1 0x1 PUSH1 0x1 PUSH1 0xA0 SHL SUB SWAP1 SWAP2 AND DUP2 MSTORE PUSH1 0x20 ADD PUSH2 0xFB JUMP JUMPDEST PUSH2 0x17C PUSH2 0x7C5 JUMP JUMPDEST PUSH1 0x0 SLOAD PUSH1 0x1 PUSH1 0xA0 SHL SWAP1 DIV PUSH1 0xFF AND ISZERO PUSH2 0x294 JUMPI PUSH1 0x40 MLOAD PUSH3 0x461BCD PUSH1 0xE5 SHL DUP2 MSTORE PUSH1 0x20 PUSH1 0x4 DUP3 ADD MSTORE PUSH1 0x28 PUSH1 0x24 DUP3 ADD MSTORE PUSH32 0x4D616B652073757265206E6F206F6E652063616E20766F7465206F6E2063616D PUSH1 0x44 DUP3 ADD MSTORE PUSH8 0x706169676E446179 PUSH1 0xC0 SHL PUSH1 0x64 DUP3 ADD MSTORE PUSH1 0x84 ADD JUMPDEST PUSH1 0x40 MLOAD DUP1 SWAP2 SUB SWAP1 REVERT JUMPDEST PUSH1 0x0 SLOAD PUSH1 0x1 PUSH1 0xA8 SHL SWAP1 DIV PUSH1 0xFF AND ISZERO PUSH2 0x2FA JUMPI PUSH1 0x40 MLOAD PUSH3 0x461BCD PUSH1 0xE5 SHL DUP2 MSTORE PUSH1 0x20 PUSH1 0x4 DUP3 ADD MSTORE PUSH1 0x24 DUP1 DUP3 ADD MSTORE PUSH32 0x4D616B657320737572652C206974277320636F756E74696E6744617920626566 PUSH1 0x44 DUP3 ADD MSTORE PUSH4 0x37B9329 PUSH1 0xE5 SHL PUSH1 0x64 DUP3 ADD MSTORE PUSH1 0x84 ADD PUSH2 0x28B JUMP JUMPDEST CALLER PUSH1 0x0 SWAP1 DUP2 MSTORE PUSH1 0x2 PUSH1 0x20 DUP2 SWAP1 MSTORE PUSH1 0x40 SWAP1 SWAP2 KECCAK256 SWAP1 DUP2 ADD SLOAD PUSH1 0xFF AND PUSH2 0x356 JUMPI PUSH1 0x40 MLOAD PUSH3 0x461BCD PUSH1 0xE5 SHL DUP2 MSTORE PUSH1 0x20 PUSH1 0x4 DUP3 ADD MSTORE PUSH1 0x14 PUSH1 0x24 DUP3 ADD MSTORE PUSH20 0x486173206E6F20726967687420746F20766F7465 PUSH1 0x60 SHL PUSH1 0x44 DUP3 ADD MSTORE PUSH1 0x64 ADD PUSH2 0x28B JUMP JUMPDEST DUP1 SLOAD PUSH1 0xFF AND ISZERO PUSH2 0x39D JUMPI PUSH1 0x40 MLOAD PUSH3 0x461BCD PUSH1 0xE5 SHL DUP2 MSTORE PUSH1 0x20 PUSH1 0x4 DUP3 ADD MSTORE PUSH1 0x12 PUSH1 0x24 DUP3 ADD MSTORE PUSH18 0x43616E277420766F74652074776963652021 PUSH1 0x70 SHL PUSH1 0x44 DUP3 ADD MSTORE PUSH1 0x64 ADD PUSH2 0x28B JUMP JUMPDEST DUP1 SLOAD PUSH1 0xFF NOT AND PUSH1 0x1 SWAP1 DUP2 OR DUP3 SSTORE DUP2 DUP2 ADD DUP4 SWAP1 SSTORE PUSH1 0x3 DUP1 SLOAD DUP5 SWAP1 DUP2 LT PUSH2 0x3D2 JUMPI PUSH4 0x4E487B71 PUSH1 0xE0 SHL PUSH1 0x0 MSTORE PUSH1 0x32 PUSH1 0x4 MSTORE PUSH1 0x24 PUSH1 0x0 REVERT JUMPDEST SWAP1 PUSH1 0x0 MSTORE PUSH1 0x20 PUSH1 0x0 KECCAK256 SWAP1 PUSH1 0x2 MUL ADD PUSH1 0x1 ADD PUSH1 0x0 DUP3 DUP3 SLOAD PUSH2 0x3F2 SWAP2 SWAP1 PUSH2 0x987 JUMP JUMPDEST SWAP1 SWAP2 SSTORE POP POP POP POP JUMP JUMPDEST PUSH1 0x0 DUP1 DUP1 JUMPDEST PUSH1 0x3 SLOAD DUP2 LT ISZERO PUSH2 0x48F JUMPI DUP2 PUSH1 0x3 DUP3 DUP2 SLOAD DUP2 LT PUSH2 0x42C JUMPI PUSH4 0x4E487B71 PUSH1 0xE0 SHL PUSH1 0x0 MSTORE PUSH1 0x32 PUSH1 0x4 MSTORE PUSH1 0x24 PUSH1 0x0 REVERT JUMPDEST SWAP1 PUSH1 0x0 MSTORE PUSH1 0x20 PUSH1 0x0 KECCAK256 SWAP1 PUSH1 0x2 MUL ADD PUSH1 0x1 ADD SLOAD GT ISZERO PUSH2 0x47D JUMPI PUSH1 0x3 DUP2 DUP2 SLOAD DUP2 LT PUSH2 0x465 JUMPI PUSH4 0x4E487B71 PUSH1 0xE0 SHL PUSH1 0x0 MSTORE PUSH1 0x32 PUSH1 0x4 MSTORE PUSH1 0x24 PUSH1 0x0 REVERT JUMPDEST SWAP1 PUSH1 0x0 MSTORE PUSH1 0x20 PUSH1 0x0 KECCAK256 SWAP1 PUSH1 0x2 MUL ADD PUSH1 0x1 ADD SLOAD SWAP2 POP DUP1 SWAP3 POP JUMPDEST DUP1 PUSH2 0x487 DUP2 PUSH2 0x9DA JUMP JUMPDEST SWAP2 POP POP PUSH2 0x400 JUMP JUMPDEST POP POP SWAP1 JUMP JUMPDEST PUSH1 0x3 DUP2 DUP2 SLOAD DUP2 LT PUSH2 0x4A4 JUMPI PUSH1 0x0 DUP1 REVERT JUMPDEST SWAP1 PUSH1 0x0 MSTORE PUSH1 0x20 PUSH1 0x0 KECCAK256 SWAP1 PUSH1 0x2 MUL ADD PUSH1 0x0 SWAP2 POP SWAP1 POP DUP1 PUSH1 0x0 ADD DUP1 SLOAD PUSH2 0x4C7 SWAP1 PUSH2 0x99F JUMP JUMPDEST DUP1 PUSH1 0x1F ADD PUSH1 0x20 DUP1 SWAP2 DIV MUL PUSH1 0x20 ADD PUSH1 0x40 MLOAD SWAP1 DUP2 ADD PUSH1 0x40 MSTORE DUP1 SWAP3 SWAP2 SWAP1 DUP2 DUP2 MSTORE PUSH1 0x20 ADD DUP3 DUP1 SLOAD PUSH2 0x4F3 SWAP1 PUSH2 0x99F JUMP JUMPDEST DUP1 ISZERO PUSH2 0x540 JUMPI DUP1 PUSH1 0x1F LT PUSH2 0x515 JUMPI PUSH2 0x100 DUP1 DUP4 SLOAD DIV MUL DUP4 MSTORE SWAP2 PUSH1 0x20 ADD SWAP2 PUSH2 0x540 JUMP JUMPDEST DUP3 ADD SWAP2 SWAP1 PUSH1 0x0 MSTORE PUSH1 0x20 PUSH1 0x0 KECCAK256 SWAP1 JUMPDEST DUP2 SLOAD DUP2 MSTORE SWAP1 PUSH1 0x1 ADD SWAP1 PUSH1 0x20 ADD DUP1 DUP4 GT PUSH2 0x523 JUMPI DUP3 SWAP1 SUB PUSH1 0x1F AND DUP3 ADD SWAP2 JUMPDEST POP POP POP POP POP SWAP1 DUP1 PUSH1 0x1 ADD SLOAD SWAP1 POP DUP3 JUMP JUMPDEST PUSH1 0x0 SLOAD PUSH1 0x1 PUSH1 0x1 PUSH1 0xA0 SHL SUB AND CALLER EQ PUSH2 0x567 JUMPI PUSH1 0x0 DUP1 REVERT JUMPDEST PUSH1 0x0 DUP1 SLOAD PUSH1 0xFF PUSH1 0xA8 SHL NOT AND PUSH1 0x1 PUSH1 0xA8 SHL OR SWAP1 SSTORE JUMP JUMPDEST PUSH1 0x0 SLOAD PUSH1 0x1 PUSH1 0x1 PUSH1 0xA0 SHL SUB AND CALLER EQ PUSH2 0x593 JUMPI PUSH1 0x0 DUP1 REVERT JUMPDEST PUSH1 0x0 SLOAD PUSH1 0x1 PUSH1 0xA0 SHL SWAP1 DIV PUSH1 0xFF AND ISZERO ISZERO PUSH1 0x1 EQ PUSH2 0x604 JUMPI PUSH1 0x40 MLOAD PUSH3 0x461BCD PUSH1 0xE5 SHL DUP2 MSTORE PUSH1 0x20 PUSH1 0x4 DUP3 ADD MSTORE PUSH1 0x2A PUSH1 0x24 DUP3 ADD MSTORE PUSH32 0x546861742063616D7061696E67446179206973207472756520666F7220746869 PUSH1 0x44 DUP3 ADD MSTORE PUSH10 0x399032B632B1BA34B7B7 PUSH1 0xB1 SHL PUSH1 0x64 DUP3 ADD MSTORE PUSH1 0x84 ADD PUSH2 0x28B JUMP JUMPDEST PUSH1 0x1 PUSH1 0x1 PUSH1 0xA0 SHL SUB DUP2 AND PUSH1 0x0 SWAP1 DUP2 MSTORE PUSH1 0x2 PUSH1 0x20 MSTORE PUSH1 0x40 SWAP1 KECCAK256 SLOAD PUSH1 0xFF AND ISZERO PUSH2 0x67C JUMPI PUSH1 0x40 MLOAD PUSH3 0x461BCD PUSH1 0xE5 SHL DUP2 MSTORE PUSH1 0x20 PUSH1 0x4 DUP3 ADD MSTORE PUSH1 0x26 PUSH1 0x24 DUP3 ADD MSTORE PUSH32 0x5468652063757272656E7420766F74657220686173206E6F7420766F74656420 PUSH1 0x44 DUP3 ADD MSTORE PUSH6 0x6265666F7265 PUSH1 0xD0 SHL PUSH1 0x64 DUP3 ADD MSTORE PUSH1 0x84 ADD PUSH2 0x28B JUMP JUMPDEST PUSH1 0x1 PUSH1 0x1 PUSH1 0xA0 SHL SUB DUP2 AND PUSH1 0x0 SWAP1 DUP2 MSTORE PUSH1 0x2 PUSH1 0x20 DUP2 SWAP1 MSTORE PUSH1 0x40 SWAP1 SWAP2 KECCAK256 ADD SLOAD PUSH1 0xFF AND ISZERO PUSH2 0x6E9 JUMPI PUSH1 0x40 MLOAD PUSH3 0x461BCD PUSH1 0xE5 SHL DUP2 MSTORE PUSH1 0x20 PUSH1 0x4 DUP3 ADD MSTORE PUSH1 0x18 PUSH1 0x24 DUP3 ADD MSTORE PUSH32 0x55736572206E6F7420616C6C6F77656420746F20766F74650000000000000000 PUSH1 0x44 DUP3 ADD MSTORE PUSH1 0x64 ADD PUSH2 0x28B JUMP JUMPDEST PUSH1 0x1 PUSH1 0x1 PUSH1 0xA0 SHL SUB AND PUSH1 0x0 SWAP1 DUP2 MSTORE PUSH1 0x2 PUSH1 0x20 DUP2 SWAP1 MSTORE PUSH1 0x40 SWAP1 SWAP2 KECCAK256 ADD DUP1 SLOAD PUSH1 0xFF NOT AND PUSH1 0x1 OR SWAP1 SSTORE JUMP JUMPDEST PUSH1 0x0 SLOAD PUSH1 0x1 PUSH1 0x1 PUSH1 0xA0 SHL SUB AND CALLER EQ PUSH2 0x728 JUMPI PUSH1 0x0 DUP1 REVERT JUMPDEST PUSH1 0x0 DUP1 SLOAD PUSH1 0xFF PUSH1 0xA0 SHL NOT AND SWAP1 SSTORE JUMP JUMPDEST PUSH1 0x1 DUP1 SLOAD PUSH2 0x744 SWAP1 PUSH2 0x99F JUMP JUMPDEST DUP1 PUSH1 0x1F ADD PUSH1 0x20 DUP1 SWAP2 DIV MUL PUSH1 0x20 ADD PUSH1 0x40 MLOAD SWAP1 DUP2 ADD PUSH1 0x40 MSTORE DUP1 SWAP3 SWAP2 SWAP1 DUP2 DUP2 MSTORE PUSH1 0x20 ADD DUP3 DUP1 SLOAD PUSH2 0x770 SWAP1 PUSH2 0x99F JUMP JUMPDEST DUP1 ISZERO PUSH2 0x7BD JUMPI DUP1 PUSH1 0x1F LT PUSH2 0x792 JUMPI PUSH2 0x100 DUP1 DUP4 SLOAD DIV MUL DUP4 MSTORE SWAP2 PUSH1 0x20 ADD SWAP2 PUSH2 0x7BD JUMP JUMPDEST DUP3 ADD SWAP2 SWAP1 PUSH1 0x0 MSTORE PUSH1 0x20 PUSH1 0x0 KECCAK256 SWAP1 JUMPDEST DUP2 SLOAD DUP2 MSTORE SWAP1 PUSH1 0x1 ADD SWAP1 PUSH1 0x20 ADD DUP1 DUP4 GT PUSH2 0x7A0 JUMPI DUP3 SWAP1 SUB PUSH1 0x1F AND DUP3 ADD SWAP2 JUMPDEST POP POP POP POP POP DUP2 JUMP JUMPDEST PUSH1 0x0 SLOAD PUSH1 0x60 SWAP1 PUSH1 0x1 PUSH1 0xA0 SHL SWAP1 DIV PUSH1 0xFF AND ISZERO PUSH2 0x7DF JUMPI PUSH1 0x0 DUP1 REVERT JUMPDEST PUSH1 0x0 SLOAD PUSH1 0x1 PUSH1 0xA8 SHL SWAP1 DIV PUSH1 0xFF AND ISZERO ISZERO PUSH1 0x1 EQ PUSH2 0x7FA JUMPI PUSH1 0x0 DUP1 REVERT JUMPDEST PUSH1 0x3 PUSH2 0x804 PUSH2 0x3FB JUMP JUMPDEST DUP2 SLOAD DUP2 LT PUSH2 0x822 JUMPI PUSH4 0x4E487B71 PUSH1 0xE0 SHL PUSH1 0x0 MSTORE PUSH1 0x32 PUSH1 0x4 MSTORE PUSH1 0x24 PUSH1 0x0 REVERT JUMPDEST SWAP1 PUSH1 0x0 MSTORE PUSH1 0x20 PUSH1 0x0 KECCAK256 SWAP1 PUSH1 0x2 MUL ADD PUSH1 0x0 ADD DUP1 SLOAD PUSH2 0x83E SWAP1 PUSH2 0x99F JUMP JUMPDEST DUP1 PUSH1 0x1F ADD PUSH1 0x20 DUP1 SWAP2 DIV MUL PUSH1 0x20 ADD PUSH1 0x40 MLOAD SWAP1 DUP2 ADD PUSH1 0x40 MSTORE DUP1 SWAP3 SWAP2 SWAP1 DUP2 DUP2 MSTORE PUSH1 0x20 ADD DUP3 DUP1 SLOAD PUSH2 0x86A SWAP1 PUSH2 0x99F JUMP JUMPDEST DUP1 ISZERO PUSH2 0x8B7 JUMPI DUP1 PUSH1 0x1F LT PUSH2 0x88C JUMPI PUSH2 0x100 DUP1 DUP4 SLOAD DIV MUL DUP4 MSTORE SWAP2 PUSH1 0x20 ADD SWAP2 PUSH2 0x8B7 JUMP JUMPDEST DUP3 ADD SWAP2 SWAP1 PUSH1 0x0 MSTORE PUSH1 0x20 PUSH1 0x0 KECCAK256 SWAP1 JUMPDEST DUP2 SLOAD DUP2 MSTORE SWAP1 PUSH1 0x1 ADD SWAP1 PUSH1 0x20 ADD DUP1 DUP4 GT PUSH2 0x89A JUMPI DUP3 SWAP1 SUB PUSH1 0x1F AND DUP3 ADD SWAP2 JUMPDEST POP POP POP POP POP SWAP1 POP SWAP1 JUMP JUMPDEST PUSH1 0x0 PUSH1 0x20 DUP3 DUP5 SUB SLT ISZERO PUSH2 0x8D2 JUMPI DUP1 DUP2 REVERT JUMPDEST DUP2 CALLDATALOAD PUSH1 0x1 PUSH1 0x1 PUSH1 0xA0 SHL SUB DUP2 AND DUP2 EQ PUSH2 0x8E8 JUMPI DUP2 DUP3 REVERT JUMPDEST SWAP4 SWAP3 POP POP POP JUMP JUMPDEST PUSH1 0x0 PUSH1 0x20 DUP3 DUP5 SUB SLT ISZERO PUSH2 0x900 JUMPI DUP1 DUP2 REVERT JUMPDEST POP CALLDATALOAD SWAP2 SWAP1 POP JUMP JUMPDEST PUSH1 0x0 DUP2 MLOAD DUP1 DUP5 MSTORE DUP2 JUMPDEST DUP2 DUP2 LT ISZERO PUSH2 0x92C JUMPI PUSH1 0x20 DUP2 DUP6 ADD DUP2 ADD MLOAD DUP7 DUP4 ADD DUP3 ADD MSTORE ADD PUSH2 0x910 JUMP JUMPDEST DUP2 DUP2 GT ISZERO PUSH2 0x93D JUMPI DUP3 PUSH1 0x20 DUP4 DUP8 ADD ADD MSTORE JUMPDEST POP PUSH1 0x1F ADD PUSH1 0x1F NOT AND SWAP3 SWAP1 SWAP3 ADD PUSH1 0x20 ADD SWAP3 SWAP2 POP POP JUMP JUMPDEST PUSH1 0x20 DUP2 MSTORE PUSH1 0x0 PUSH2 0x8E8 PUSH1 0x20 DUP4 ADD DUP5 PUSH2 0x907 JUMP JUMPDEST PUSH1 0x40 DUP2 MSTORE PUSH1 0x0 PUSH2 0x978 PUSH1 0x40 DUP4 ADD DUP6 PUSH2 0x907 JUMP JUMPDEST SWAP1 POP DUP3 PUSH1 0x20 DUP4 ADD MSTORE SWAP4 SWAP3 POP POP POP JUMP JUMPDEST PUSH1 0x0 DUP3 NOT DUP3 GT ISZERO PUSH2 0x99A JUMPI PUSH2 0x99A PUSH2 0x9F5 JUMP JUMPDEST POP ADD SWAP1 JUMP JUMPDEST PUSH1 0x1 DUP2 DUP2 SHR SWAP1 DUP3 AND DUP1 PUSH2 0x9B3 JUMPI PUSH1 0x7F DUP3 AND SWAP2 POP JUMPDEST PUSH1 0x20 DUP3 LT DUP2 EQ ISZERO PUSH2 0x9D4 JUMPI PUSH4 0x4E487B71 PUSH1 0xE0 SHL PUSH1 0x0 MSTORE PUSH1 0x22 PUSH1 0x4 MSTORE PUSH1 0x24 PUSH1 0x0 REVERT JUMPDEST POP SWAP2 SWAP1 POP JUMP JUMPDEST PUSH1 0x0 PUSH1 0x0 NOT DUP3 EQ ISZERO PUSH2 0x9EE JUMPI PUSH2 0x9EE PUSH2 0x9F5 JUMP JUMPDEST POP PUSH1 0x1 ADD SWAP1 JUMP JUMPDEST PUSH4 0x4E487B71 PUSH1 0xE0 SHL PUSH1 0x0 MSTORE PUSH1 0x11 PUSH1 0x4 MSTORE PUSH1 0x24 PUSH1 0x0 REVERT INVALID LOG2 PUSH5 0x6970667358 0x22 SLT KECCAK256 DUP11 0x2D 0xD2 SWAP13 EXTCODESIZE 0x28 0xD4 CALLVALUE PUSH7 0xD1568EC4647F29 0x4E 0xB8 0xC9 0xB8 0xA8 CHAINID AND PUSH27 0xF4C6BF9A759FF75A64736F6C634300080400330000000000000000 "},"gasEstimates":{"creation":{"codeDepositCost":"525000","executionCost":"infinite","totalCost":"infinite"},"external":{"INECPERSONNEL()":"1106","campaignDay()":"1049","candidates(uint256)":"infinite","countVote()":"infinite","countingDay()":"1072","description()":"infinite","endCampaign()":"21853","getCandidateCount()":"1048","registerVoter(address)":"24743","startCounting()":"21931","vote(uint256)":"66281","voters(address)":"2933","winnerName()":"infinite"}},"methodIdentifiers":{"INECPERSONNEL()":"db9e19c6","campaignDay()":"9c0b97b5","candidates(uint256)":"3477ee2e","countVote()":"1a6cd2fd","countingDay()":"232039e0","description()":"7284e416","endCampaign()":"71aac7f9","getCandidateCount()":"30a56347","registerVoter(address)":"38db6dd3","startCounting()":"38c48433","vote(uint256)":"0121b93f","voters(address)":"a3ec138d","winnerName()":"e2ba53f0"}},"storageLayout":{"storage":[{"astId":57,"contract":"Provote.sol:Provote","label":"INECPERSONNEL","offset":0,"slot":"0","type":"t_address"},{"astId":60,"contract":"Provote.sol:Provote","label":"campaignDay","offset":20,"slot":"0","type":"t_bool"},{"astId":63,"contract":"Provote.sol:Provote","label":"countingDay","offset":21,"slot":"0","type":"t_bool"},{"astId":65,"contract":"Provote.sol:Provote","label":"description","offset":0,"slot":"1","type":"t_string_storage"},{"astId":70,"contract":"Provote.sol:Provote","label":"voters","offset":0,"slot":"2","type":"t_mapping(t_address,t_struct(Voter)55_storage)"},{"astId":74,"contract":"Provote.sol:Provote","label":"candidates","offset":0,"slot":"3","type":"t_array(t_struct(Candidate)48_storage)dyn_storage"}],"types":{"t_address":{"encoding":"inplace","label":"address","numberOfBytes":"20"},"t_array(t_struct(Candidate)48_storage)dyn_storage":{"base":"t_struct(Candidate)48_storage","encoding":"dynamic_array","label":"struct Provote.Candidate[]","numberOfBytes":"32"},"t_bool":{"encoding":"inplace","label":"bool","numberOfBytes":"1"},"t_mapping(t_address,t_struct(Voter)55_storage)":{"encoding":"mapping","key":"t_address","label":"mapping(address => struct Provote.Voter)","numberOfBytes":"32","value":"t_struct(Voter)55_storage"},"t_string_storage":{"encoding":"bytes","label":"string","numberOfBytes":"32"},"t_struct(Candidate)48_storage":{"encoding":"inplace","label":"struct Provote.Candidate","members":[{"astId":45,"contract":"Provote.sol:Provote","label":"name","offset":0,"slot":"0","type":"t_string_storage"},{"astId":47,"contract":"Provote.sol:Provote","label":"voteCount","offset":0,"slot":"1","type":"t_uint256"}],"numberOfBytes":"64"},"t_struct(Voter)55_storage":{"encoding":"inplace","label":"struct Provote.Voter","members":[{"astId":50,"contract":"Provote.sol:Provote","label":"voted","offset":0,"slot":"0","type":"t_bool"},{"astId":52,"contract":"Provote.sol:Provote","label":"vote","offset":0,"slot":"1","type":"t_uint256"},{"astId":54,"contract":"Provote.sol:Provote","label":"rightToVote","offset":0,"slot":"2","type":"t_bool"}],"numberOfBytes":"96"},"t_uint256":{"encoding":"inplace","label":"uint256","numberOfBytes":"32"}}},"userdoc":{"kind":"user","methods":{},"version":1}}